{
  "_format": "hh-sol-artifact-1",
  "contractName": "Battle",
  "sourceName": "contracts/battle/Battle.sol",
  "abi": [
    {
      "inputs": [],
      "stateMutability": "nonpayable",
      "type": "constructor"
    },
    {
      "anonymous": false,
      "inputs": [
        {
          "indexed": false,
          "internalType": "address",
          "name": "previousAdmin",
          "type": "address"
        },
        {
          "indexed": false,
          "internalType": "address",
          "name": "newAdmin",
          "type": "address"
        }
      ],
      "name": "AdminChanged",
      "type": "event"
    },
    {
      "anonymous": false,
      "inputs": [
        {
          "indexed": true,
          "internalType": "address",
          "name": "beacon",
          "type": "address"
        }
      ],
      "name": "BeaconUpgraded",
      "type": "event"
    },
    {
      "anonymous": false,
      "inputs": [
        {
          "indexed": false,
          "internalType": "uint8",
          "name": "version",
          "type": "uint8"
        }
      ],
      "name": "Initialized",
      "type": "event"
    },
    {
      "anonymous": false,
      "inputs": [
        {
          "indexed": true,
          "internalType": "bytes32",
          "name": "role",
          "type": "bytes32"
        },
        {
          "indexed": true,
          "internalType": "bytes32",
          "name": "previousAdminRole",
          "type": "bytes32"
        },
        {
          "indexed": true,
          "internalType": "bytes32",
          "name": "newAdminRole",
          "type": "bytes32"
        }
      ],
      "name": "RoleAdminChanged",
      "type": "event"
    },
    {
      "anonymous": false,
      "inputs": [
        {
          "indexed": true,
          "internalType": "bytes32",
          "name": "role",
          "type": "bytes32"
        },
        {
          "indexed": true,
          "internalType": "address",
          "name": "account",
          "type": "address"
        },
        {
          "indexed": true,
          "internalType": "address",
          "name": "sender",
          "type": "address"
        }
      ],
      "name": "RoleGranted",
      "type": "event"
    },
    {
      "anonymous": false,
      "inputs": [
        {
          "indexed": true,
          "internalType": "bytes32",
          "name": "role",
          "type": "bytes32"
        },
        {
          "indexed": true,
          "internalType": "address",
          "name": "account",
          "type": "address"
        },
        {
          "indexed": true,
          "internalType": "address",
          "name": "sender",
          "type": "address"
        }
      ],
      "name": "RoleRevoked",
      "type": "event"
    },
    {
      "anonymous": false,
      "inputs": [
        {
          "indexed": true,
          "internalType": "address",
          "name": "implementation",
          "type": "address"
        }
      ],
      "name": "Upgraded",
      "type": "event"
    },
    {
      "inputs": [],
      "name": "DEFAULT_ADMIN_ROLE",
      "outputs": [
        {
          "internalType": "bytes32",
          "name": "",
          "type": "bytes32"
        }
      ],
      "stateMutability": "view",
      "type": "function"
    },
    {
      "inputs": [],
      "name": "GAME_ROLE",
      "outputs": [
        {
          "internalType": "bytes32",
          "name": "",
          "type": "bytes32"
        }
      ],
      "stateMutability": "view",
      "type": "function"
    },
    {
      "inputs": [],
      "name": "UPGRADER_ROLE",
      "outputs": [
        {
          "internalType": "bytes32",
          "name": "",
          "type": "bytes32"
        }
      ],
      "stateMutability": "view",
      "type": "function"
    },
    {
      "inputs": [
        {
          "internalType": "address",
          "name": "nft",
          "type": "address"
        }
      ],
      "name": "addAvailableNFT",
      "outputs": [],
      "stateMutability": "nonpayable",
      "type": "function"
    },
    {
      "inputs": [
        {
          "internalType": "string",
          "name": "title",
          "type": "string"
        },
        {
          "internalType": "string",
          "name": "description",
          "type": "string"
        },
        {
          "internalType": "address[]",
          "name": "availableNFTs",
          "type": "address[]"
        },
        {
          "internalType": "uint32",
          "name": "maxParticipantCount",
          "type": "uint32"
        }
      ],
      "name": "create",
      "outputs": [],
      "stateMutability": "nonpayable",
      "type": "function"
    },
    {
      "inputs": [],
      "name": "getAvailableNFTs",
      "outputs": [
        {
          "internalType": "address[]",
          "name": "returnValue",
          "type": "address[]"
        }
      ],
      "stateMutability": "view",
      "type": "function"
    },
    {
      "inputs": [
        {
          "internalType": "uint256[]",
          "name": "battleIds",
          "type": "uint256[]"
        }
      ],
      "name": "getBattles",
      "outputs": [
        {
          "components": [
            {
              "internalType": "string",
              "name": "title",
              "type": "string"
            },
            {
              "internalType": "string",
              "name": "description",
              "type": "string"
            },
            {
              "internalType": "address[]",
              "name": "availableNFTs",
              "type": "address[]"
            },
            {
              "internalType": "uint32",
              "name": "maxParticipantCount",
              "type": "uint32"
            },
            {
              "internalType": "address[]",
              "name": "participantNFTs",
              "type": "address[]"
            },
            {
              "internalType": "uint256[]",
              "name": "participanttokenIds",
              "type": "uint256[]"
            },
            {
              "internalType": "bool",
              "name": "closed",
              "type": "bool"
            }
          ],
          "internalType": "struct IBattle.Battle[]",
          "name": "returnValue",
          "type": "tuple[]"
        }
      ],
      "stateMutability": "view",
      "type": "function"
    },
    {
      "inputs": [
        {
          "internalType": "bytes32",
          "name": "role",
          "type": "bytes32"
        }
      ],
      "name": "getRoleAdmin",
      "outputs": [
        {
          "internalType": "bytes32",
          "name": "",
          "type": "bytes32"
        }
      ],
      "stateMutability": "view",
      "type": "function"
    },
    {
      "inputs": [
        {
          "internalType": "bytes32",
          "name": "role",
          "type": "bytes32"
        },
        {
          "internalType": "uint256",
          "name": "index",
          "type": "uint256"
        }
      ],
      "name": "getRoleMember",
      "outputs": [
        {
          "internalType": "address",
          "name": "",
          "type": "address"
        }
      ],
      "stateMutability": "view",
      "type": "function"
    },
    {
      "inputs": [
        {
          "internalType": "bytes32",
          "name": "role",
          "type": "bytes32"
        }
      ],
      "name": "getRoleMemberCount",
      "outputs": [
        {
          "internalType": "uint256",
          "name": "",
          "type": "uint256"
        }
      ],
      "stateMutability": "view",
      "type": "function"
    },
    {
      "inputs": [],
      "name": "getTotalBattle",
      "outputs": [
        {
          "internalType": "uint256",
          "name": "returnValue",
          "type": "uint256"
        }
      ],
      "stateMutability": "view",
      "type": "function"
    },
    {
      "inputs": [
        {
          "internalType": "bytes32",
          "name": "role",
          "type": "bytes32"
        },
        {
          "internalType": "address",
          "name": "account",
          "type": "address"
        }
      ],
      "name": "grantRole",
      "outputs": [],
      "stateMutability": "nonpayable",
      "type": "function"
    },
    {
      "inputs": [
        {
          "internalType": "bytes32",
          "name": "role",
          "type": "bytes32"
        },
        {
          "internalType": "address",
          "name": "account",
          "type": "address"
        }
      ],
      "name": "hasRole",
      "outputs": [
        {
          "internalType": "bool",
          "name": "",
          "type": "bool"
        }
      ],
      "stateMutability": "view",
      "type": "function"
    },
    {
      "inputs": [],
      "name": "initialize",
      "outputs": [],
      "stateMutability": "nonpayable",
      "type": "function"
    },
    {
      "inputs": [],
      "name": "proxiableUUID",
      "outputs": [
        {
          "internalType": "bytes32",
          "name": "",
          "type": "bytes32"
        }
      ],
      "stateMutability": "view",
      "type": "function"
    },
    {
      "inputs": [
        {
          "internalType": "address",
          "name": "nft",
          "type": "address"
        }
      ],
      "name": "removeAvailableNFT",
      "outputs": [],
      "stateMutability": "nonpayable",
      "type": "function"
    },
    {
      "inputs": [
        {
          "internalType": "bytes32",
          "name": "role",
          "type": "bytes32"
        },
        {
          "internalType": "address",
          "name": "account",
          "type": "address"
        }
      ],
      "name": "renounceRole",
      "outputs": [],
      "stateMutability": "nonpayable",
      "type": "function"
    },
    {
      "inputs": [
        {
          "internalType": "bytes32",
          "name": "role",
          "type": "bytes32"
        },
        {
          "internalType": "address",
          "name": "account",
          "type": "address"
        }
      ],
      "name": "revokeRole",
      "outputs": [],
      "stateMutability": "nonpayable",
      "type": "function"
    },
    {
      "inputs": [
        {
          "internalType": "bytes4",
          "name": "interfaceId",
          "type": "bytes4"
        }
      ],
      "name": "supportsInterface",
      "outputs": [
        {
          "internalType": "bool",
          "name": "",
          "type": "bool"
        }
      ],
      "stateMutability": "view",
      "type": "function"
    },
    {
      "inputs": [
        {
          "internalType": "address",
          "name": "newImplementation",
          "type": "address"
        }
      ],
      "name": "upgradeTo",
      "outputs": [],
      "stateMutability": "nonpayable",
      "type": "function"
    },
    {
      "inputs": [
        {
          "internalType": "address",
          "name": "newImplementation",
          "type": "address"
        },
        {
          "internalType": "bytes",
          "name": "data",
          "type": "bytes"
        }
      ],
      "name": "upgradeToAndCall",
      "outputs": [],
      "stateMutability": "payable",
      "type": "function"
    }
  ],
  "bytecode": "0x60a0604052306080523480156200001557600080fd5b506200002062000026565b620000e7565b600054610100900460ff1615620000935760405162461bcd60e51b815260206004820152602760248201527f496e697469616c697a61626c653a20636f6e747261637420697320696e697469604482015266616c697a696e6760c81b606482015260840160405180910390fd5b60005460ff90811614620000e5576000805460ff191660ff9081179091556040519081527f7f26b83ff96e1f2b6a682f133852f6798a09c465da95921460cefb38474024989060200160405180910390a15b565b60805161252e6200011f600039600081816106ef0152818161072f01528181610bd501528181610c150152610ca4015261252e6000f3fe60806040526004361061012a5760003560e01c80638129fc1c116100ab578063a217fddf1161006f578063a217fddf1461033e578063ab40070614610353578063bb78b0b514610387578063ca15c873146103a7578063d547741f146103c7578063f72c0d8b146103e757600080fd5b80638129fc1c1461029b578063868dd48d146102b05780639010d07c146102c6578063904c9e82146102fe57806391d148541461031e57600080fd5b806336568abe116100f257806336568abe146102065780633659cfe6146102265780634cfbc81c146102465780634f1ef2861461027357806352d1902d1461028657600080fd5b806301ffc9a71461012f578063119c845a14610164578063248a9ca3146101865780632f2ff15d146101c457806332702c95146101e4575b600080fd5b34801561013b57600080fd5b5061014f61014a366004611ba9565b61041b565b60405190151581526020015b60405180910390f35b34801561017057600080fd5b5061018461017f366004611bef565b610446565b005b34801561019257600080fd5b506101b66101a1366004611c0a565b60009081526065602052604090206001015490565b60405190815260200161015b565b3480156101d057600080fd5b506101846101df366004611c23565b6105da565b3480156101f057600080fd5b506101f9610604565b60405161015b9190611c4f565b34801561021257600080fd5b50610184610221366004611c23565b610667565b34801561023257600080fd5b50610184610241366004611bef565b6106e5565b34801561025257600080fd5b50610266610261366004611d07565b6107c4565b60405161015b9190611e61565b610184610281366004611fb7565b610bcb565b34801561029257600080fd5b506101b6610c97565b3480156102a757600080fd5b50610184610d4a565b3480156102bc57600080fd5b50610130546101b6565b3480156102d257600080fd5b506102e66102e1366004612019565b610ec1565b6040516001600160a01b03909116815260200161015b565b34801561030a57600080fd5b5061018461031936600461206f565b610ee0565b34801561032a57600080fd5b5061014f610339366004611c23565b61106d565b34801561034a57600080fd5b506101b6600081565b34801561035f57600080fd5b506101b67f6a64baf327d646d1bca72653e2a075d15fd6ac6d8cbd7f6ee03fc55875e0fa8881565b34801561039357600080fd5b506101846103a2366004611bef565b611098565b3480156103b357600080fd5b506101b66103c2366004611c0a565b611184565b3480156103d357600080fd5b506101846103e2366004611c23565b61119b565b3480156103f357600080fd5b506101b67f189ab7a9244df0848122154315af71fe140f3db0fe014031783b0946b8c9d2e381565b60006001600160e01b03198216635a05180f60e01b14806104405750610440826111c0565b92915050565b6000610451816111f5565b6001600160a01b038216600090815261012f602052604090205460ff166104bf5760405162461bcd60e51b815260206004820152601c60248201527f426174746c653a206e6674206973206e6f7420617661696c61626c650000000060448201526064015b60405180910390fd5b6001600160a01b038216600090815261012f60209081526040808320805460ff1916905561012e90915281205461012d80549192916105009060019061217b565b815481106105105761051061218e565b6000918252602090912001546001600160a01b03908116915084168114610581578061012d83815481106105465761054661218e565b600091825260208083209190910180546001600160a01b0319166001600160a01b03948516179055918316815261012e909152604090208290555b61012d805480610593576105936121a4565b60008281526020808220830160001990810180546001600160a01b03191690559092019092556001600160a01b0395909516815261012e9094525050604082209190915550565b6000828152606560205260409020600101546105f5816111f5565b6105ff83836111ff565b505050565b606061012d80548060200260200160405190810160405280929190818152602001828054801561065d57602002820191906000526020600020905b81546001600160a01b0316815260019091019060200180831161063f575b5050505050905090565b6001600160a01b03811633146106d75760405162461bcd60e51b815260206004820152602f60248201527f416363657373436f6e74726f6c3a2063616e206f6e6c792072656e6f756e636560448201526e103937b632b9903337b91039b2b63360891b60648201526084016104b6565b6106e18282611221565b5050565b6001600160a01b037f000000000000000000000000000000000000000000000000000000000000000016300361072d5760405162461bcd60e51b81526004016104b6906121ba565b7f00000000000000000000000000000000000000000000000000000000000000006001600160a01b03166107766000805160206124b2833981519152546001600160a01b031690565b6001600160a01b03161461079c5760405162461bcd60e51b81526004016104b690612206565b6107a581611243565b604080516000808252602082019092526107c19183919061126d565b50565b80516060908067ffffffffffffffff8111156107e2576107e2611c9c565b60405190808252806020026020018201604052801561085b57816020015b6108486040518060e00160405280606081526020016060815260200160608152602001600063ffffffff16815260200160608152602001606081526020016000151581525090565b8152602001906001900390816108005790505b50915060005b81811015610bc457600084828151811061087d5761087d61218e565b602002602001015190506101305481106108d95760405162461bcd60e51b815260206004820181905260248201527f426174746c653a20626174746c654964206973206f7574206f662072616e676560448201526064016104b6565b6040518060e001604052806101316000848152602001908152602001600020805461090390612252565b80601f016020809104026020016040519081016040528092919081815260200182805461092f90612252565b801561097c5780601f106109515761010080835404028352916020019161097c565b820191906000526020600020905b81548152906001019060200180831161095f57829003601f168201915b50505050508152602001610132600084815260200190815260200160002080546109a590612252565b80601f01602080910402602001604051908101604052809291908181526020018280546109d190612252565b8015610a1e5780601f106109f357610100808354040283529160200191610a1e565b820191906000526020600020905b815481529060010190602001808311610a0157829003601f168201915b505050505081526020016101336000848152602001908152602001600020805480602002602001604051908101604052809291908181526020018280548015610a9057602002820191906000526020600020905b81546001600160a01b03168152600190910190602001808311610a72575b50505091835250506000838152610134602090815260408083205463ffffffff16828501528583526101358252918290208054835181840281018401855281815293909401939091830182828015610b1157602002820191906000526020600020905b81546001600160a01b03168152600190910190602001808311610af3575b505050505081526020016101366000848152602001908152602001600020805480602002602001604051908101604052809291908181526020018280548015610b7957602002820191906000526020600020905b815481526020019060010190808311610b65575b50505091835250506000838152610137602090815260409091205460ff1615159101528451859084908110610bb057610bb061218e565b602090810291909101015250600101610861565b5050919050565b6001600160a01b037f0000000000000000000000000000000000000000000000000000000000000000163003610c135760405162461bcd60e51b81526004016104b6906121ba565b7f00000000000000000000000000000000000000000000000000000000000000006001600160a01b0316610c5c6000805160206124b2833981519152546001600160a01b031690565b6001600160a01b031614610c825760405162461bcd60e51b81526004016104b690612206565b610c8b82611243565b6106e18282600161126d565b6000306001600160a01b037f00000000000000000000000000000000000000000000000000000000000000001614610d375760405162461bcd60e51b815260206004820152603860248201527f555550535570677261646561626c653a206d757374206e6f742062652063616c60448201527f6c6564207468726f7567682064656c656761746563616c6c000000000000000060648201526084016104b6565b506000805160206124b283398151915290565b600054610100900460ff1615808015610d6a5750600054600160ff909116105b80610d845750303b158015610d84575060005460ff166001145b610de75760405162461bcd60e51b815260206004820152602e60248201527f496e697469616c697a61626c653a20636f6e747261637420697320616c72656160448201526d191e481a5b9a5d1a585b1a5e995960921b60648201526084016104b6565b6000805460ff191660011790558015610e0a576000805461ff0019166101001790555b610e126113d8565b610e1a6113d8565b610e256000336111ff565b610e4f7f189ab7a9244df0848122154315af71fe140f3db0fe014031783b0946b8c9d2e3336111ff565b610e797f6a64baf327d646d1bca72653e2a075d15fd6ac6d8cbd7f6ee03fc55875e0fa88336111ff565b80156107c1576000805461ff0019169055604051600181527f7f26b83ff96e1f2b6a682f133852f6798a09c465da95921460cefb38474024989060200160405180910390a150565b6000828152609760205260408120610ed99083611445565b9392505050565b815182906000819003610f2d5760405162461bcd60e51b8152602060048201526015602482015274426174746c653a206e66747320697320656d70747960581b60448201526064016104b6565b60005b81811015610fca5761012f6000848381518110610f4f57610f4f61218e565b6020908102919091018101516001600160a01b031682528101919091526040016000205460ff16610fc25760405162461bcd60e51b815260206004820152601c60248201527f426174746c653a206e6674206973206e6f7420617661696c61626c650000000060448201526064016104b6565b600101610f30565b5061013054600090815261013160205260409020610fe887826122da565b506101305460009081526101326020526040902061100686826122da565b5061013054600090815261013360209081526040909120855161102b92870190611b2f565b506101308054600090815261013460205260408120805463ffffffff191663ffffffff8716179055815491906110608361239a565b9190505550505050505050565b60009182526065602090815260408084206001600160a01b0393909316845291905290205460ff1690565b60006110a3816111f5565b6001600160a01b038216600090815261012f602052604090205460ff161561110d5760405162461bcd60e51b815260206004820181905260248201527f426174746c653a206e667420697320616c726561647920617661696c61626c6560448201526064016104b6565b506001600160a01b0316600081815261012f60209081526040808320805460ff1916600190811790915561012d805461012e909452918420839055820181559091527f193a3ae4da5049eb74cee39e4cf5827f7ce7b1d1d1775ef1c6311eb60558e6d50180546001600160a01b0319169091179055565b600081815260976020526040812061044090611451565b6000828152606560205260409020600101546111b6816111f5565b6105ff8383611221565b60006001600160e01b03198216637965db0b60e01b148061044057506301ffc9a760e01b6001600160e01b0319831614610440565b6107c1813361145b565b61120982826114b4565b60008281526097602052604090206105ff908261153a565b61122b828261154f565b60008281526097602052604090206105ff90826115b6565b7f189ab7a9244df0848122154315af71fe140f3db0fe014031783b0946b8c9d2e36106e1816111f5565b7f4910fdfa16fed3260ed0e7147f7cc6da11a60208b5b9406d12a635614ffd91435460ff16156112a0576105ff836115cb565b826001600160a01b03166352d1902d6040518163ffffffff1660e01b8152600401602060405180830381865afa9250505080156112fa575060408051601f3d908101601f191682019092526112f7918101906123b3565b60015b61135d5760405162461bcd60e51b815260206004820152602e60248201527f45524331393637557067726164653a206e657720696d706c656d656e7461746960448201526d6f6e206973206e6f74205555505360901b60648201526084016104b6565b6000805160206124b283398151915281146113cc5760405162461bcd60e51b815260206004820152602960248201527f45524331393637557067726164653a20756e737570706f727465642070726f786044820152681a58589b195555525160ba1b60648201526084016104b6565b506105ff838383611667565b600054610100900460ff166114435760405162461bcd60e51b815260206004820152602b60248201527f496e697469616c697a61626c653a20636f6e7472616374206973206e6f74206960448201526a6e697469616c697a696e6760a81b60648201526084016104b6565b565b6000610ed98383611692565b6000610440825490565b611465828261106d565b6106e157611472816116bc565b61147d8360206116ce565b60405160200161148e9291906123cc565b60408051601f198184030181529082905262461bcd60e51b82526104b691600401612441565b6114be828261106d565b6106e15760008281526065602090815260408083206001600160a01b03851684529091529020805460ff191660011790556114f63390565b6001600160a01b0316816001600160a01b0316837f2f8788117e7eff1d82e926ec794901d17c78024a50270940304540a733656f0d60405160405180910390a45050565b6000610ed9836001600160a01b03841661186a565b611559828261106d565b156106e15760008281526065602090815260408083206001600160a01b0385168085529252808320805460ff1916905551339285917ff6391f5c32d9c69d2a47ea670b442974b53935d1edc7fd64eb21e047a839171b9190a45050565b6000610ed9836001600160a01b0384166118b9565b6001600160a01b0381163b6116385760405162461bcd60e51b815260206004820152602d60248201527f455243313936373a206e657720696d706c656d656e746174696f6e206973206e60448201526c1bdd08184818dbdb9d1c9858dd609a1b60648201526084016104b6565b6000805160206124b283398151915280546001600160a01b0319166001600160a01b0392909216919091179055565b611670836119ac565b60008251118061167d5750805b156105ff5761168c83836119ec565b50505050565b60008260000182815481106116a9576116a961218e565b9060005260206000200154905092915050565b60606104406001600160a01b03831660145b606060006116dd836002612454565b6116e890600261246b565b67ffffffffffffffff81111561170057611700611c9c565b6040519080825280601f01601f19166020018201604052801561172a576020820181803683370190505b509050600360fc1b816000815181106117455761174561218e565b60200101906001600160f81b031916908160001a905350600f60fb1b816001815181106117745761177461218e565b60200101906001600160f81b031916908160001a9053506000611798846002612454565b6117a390600161246b565b90505b600181111561181b576f181899199a1a9b1b9c1cb0b131b232b360811b85600f16601081106117d7576117d761218e565b1a60f81b8282815181106117ed576117ed61218e565b60200101906001600160f81b031916908160001a90535060049490941c936118148161247e565b90506117a6565b508315610ed95760405162461bcd60e51b815260206004820181905260248201527f537472696e67733a20686578206c656e67746820696e73756666696369656e7460448201526064016104b6565b60008181526001830160205260408120546118b157508154600181810184556000848152602080822090930184905584548482528286019093526040902091909155610440565b506000610440565b600081815260018301602052604081205480156119a25760006118dd60018361217b565b85549091506000906118f19060019061217b565b90508181146119565760008660000182815481106119115761191161218e565b90600052602060002001549050808760000184815481106119345761193461218e565b6000918252602080832090910192909255918252600188019052604090208390555b8554869080611967576119676121a4565b600190038181906000526020600020016000905590558560010160008681526020019081526020016000206000905560019350505050610440565b6000915050610440565b6119b5816115cb565b6040516001600160a01b038216907fbc7cd75a20ee27fd9adebab32041f755214dbc6bffa90cc0225b39da2e5c2d3b90600090a250565b6060610ed983836040518060600160405280602781526020016124d2602791396060600080856001600160a01b031685604051611a299190612495565b600060405180830381855af49150503d8060008114611a64576040519150601f19603f3d011682016040523d82523d6000602084013e611a69565b606091505b5091509150611a7a86838387611a84565b9695505050505050565b60608315611af3578251600003611aec576001600160a01b0385163b611aec5760405162461bcd60e51b815260206004820152601d60248201527f416464726573733a2063616c6c20746f206e6f6e2d636f6e747261637400000060448201526064016104b6565b5081611afd565b611afd8383611b05565b949350505050565b815115611b155781518083602001fd5b8060405162461bcd60e51b81526004016104b69190612441565b828054828255906000526020600020908101928215611b84579160200282015b82811115611b8457825182546001600160a01b0319166001600160a01b03909116178255602090920191600190910190611b4f565b50611b90929150611b94565b5090565b5b80821115611b905760008155600101611b95565b600060208284031215611bbb57600080fd5b81356001600160e01b031981168114610ed957600080fd5b80356001600160a01b0381168114611bea57600080fd5b919050565b600060208284031215611c0157600080fd5b610ed982611bd3565b600060208284031215611c1c57600080fd5b5035919050565b60008060408385031215611c3657600080fd5b82359150611c4660208401611bd3565b90509250929050565b6020808252825182820181905260009190848201906040850190845b81811015611c905783516001600160a01b031683529284019291840191600101611c6b565b50909695505050505050565b634e487b7160e01b600052604160045260246000fd5b604051601f8201601f1916810167ffffffffffffffff81118282101715611cdb57611cdb611c9c565b604052919050565b600067ffffffffffffffff821115611cfd57611cfd611c9c565b5060051b60200190565b60006020808385031215611d1a57600080fd5b823567ffffffffffffffff811115611d3157600080fd5b8301601f81018513611d4257600080fd5b8035611d55611d5082611ce3565b611cb2565b81815260059190911b82018301908381019087831115611d7457600080fd5b928401925b82841015611d9257833582529284019290840190611d79565b979650505050505050565b60005b83811015611db8578181015183820152602001611da0565b50506000910152565b60008151808452611dd9816020860160208601611d9d565b601f01601f19169290920160200192915050565b600081518084526020808501945080840160005b83811015611e265781516001600160a01b031687529582019590820190600101611e01565b509495945050505050565b600081518084526020808501945080840160005b83811015611e2657815187529582019590820190600101611e45565b60006020808301818452808551808352604092508286019150828160051b87010184880160005b83811015611f5157603f19898403018552815160e08151818652611eae82870182611dc1565b915050888201518582038a870152611ec68282611dc1565b9150508782015185820389870152611ede8282611ded565b915050606063ffffffff8184015116818701525060808083015186830382880152611f098382611ded565b9250505060a08083015186830382880152611f248382611e31565b9250505060c0808301519250611f3d8187018415159052565b509588019593505090860190600101611e88565b509098975050505050505050565b600067ffffffffffffffff831115611f7957611f79611c9c565b611f8c601f8401601f1916602001611cb2565b9050828152838383011115611fa057600080fd5b828260208301376000602084830101529392505050565b60008060408385031215611fca57600080fd5b611fd383611bd3565b9150602083013567ffffffffffffffff811115611fef57600080fd5b8301601f8101851361200057600080fd5b61200f85823560208401611f5f565b9150509250929050565b6000806040838503121561202c57600080fd5b50508035926020909101359150565b600082601f83011261204c57600080fd5b610ed983833560208501611f5f565b803563ffffffff81168114611bea57600080fd5b6000806000806080858703121561208557600080fd5b843567ffffffffffffffff8082111561209d57600080fd5b6120a98883890161203b565b95506020915081870135818111156120c057600080fd5b6120cc89828a0161203b565b9550506040870135818111156120e157600080fd5b87019050601f810188136120f457600080fd5b8035612102611d5082611ce3565b81815260059190911b8201830190838101908a83111561212157600080fd5b928401925b828410156121465761213784611bd3565b82529284019290840190612126565b809650505050505061215a6060860161205b565b905092959194509250565b634e487b7160e01b600052601160045260246000fd5b8181038181111561044057610440612165565b634e487b7160e01b600052603260045260246000fd5b634e487b7160e01b600052603160045260246000fd5b6020808252602c908201527f46756e6374696f6e206d7573742062652063616c6c6564207468726f7567682060408201526b19195b1959d85d1958d85b1b60a21b606082015260800190565b6020808252602c908201527f46756e6374696f6e206d7573742062652063616c6c6564207468726f7567682060408201526b6163746976652070726f787960a01b606082015260800190565b600181811c9082168061226657607f821691505b60208210810361228657634e487b7160e01b600052602260045260246000fd5b50919050565b601f8211156105ff57600081815260208120601f850160051c810160208610156122b35750805b601f850160051c820191505b818110156122d2578281556001016122bf565b505050505050565b815167ffffffffffffffff8111156122f4576122f4611c9c565b612308816123028454612252565b8461228c565b602080601f83116001811461233d57600084156123255750858301515b600019600386901b1c1916600185901b1785556122d2565b600085815260208120601f198616915b8281101561236c5788860151825594840194600190910190840161234d565b508582101561238a5787850151600019600388901b60f8161c191681555b5050505050600190811b01905550565b6000600182016123ac576123ac612165565b5060010190565b6000602082840312156123c557600080fd5b5051919050565b7f416363657373436f6e74726f6c3a206163636f756e7420000000000000000000815260008351612404816017850160208801611d9d565b7001034b99036b4b9b9b4b733903937b6329607d1b6017918401918201528351612435816028840160208801611d9d565b01602801949350505050565b602081526000610ed96020830184611dc1565b808202811582820484141761044057610440612165565b8082018082111561044057610440612165565b60008161248d5761248d612165565b506000190190565b600082516124a7818460208701611d9d565b919091019291505056fe360894a13ba1a3210667c828492db98dca3e2076cc3735a920a3ca505d382bbc416464726573733a206c6f772d6c6576656c2064656c65676174652063616c6c206661696c6564a2646970667358221220e7ec0a64312845dd5a0454a45e5ff7a5f41baa360b61c2122654e618c5456eec64736f6c63430008120033",
  "linkReferences": {},
  "deployedLinkReferences": {}
}