{
  "_format": "hh-sol-artifact-1",
  "contractName": "Battle",
  "sourceName": "contracts/battle/Battle.sol",
  "abi": [
    {
      "inputs": [],
      "stateMutability": "nonpayable",
      "type": "constructor"
    },
    {
      "anonymous": false,
      "inputs": [
        {
          "indexed": false,
          "internalType": "address",
          "name": "previousAdmin",
          "type": "address"
        },
        {
          "indexed": false,
          "internalType": "address",
          "name": "newAdmin",
          "type": "address"
        }
      ],
      "name": "AdminChanged",
      "type": "event"
    },
    {
      "anonymous": false,
      "inputs": [
        {
          "indexed": true,
          "internalType": "address",
          "name": "beacon",
          "type": "address"
        }
      ],
      "name": "BeaconUpgraded",
      "type": "event"
    },
    {
      "anonymous": false,
      "inputs": [
        {
          "indexed": false,
          "internalType": "uint8",
          "name": "version",
          "type": "uint8"
        }
      ],
      "name": "Initialized",
      "type": "event"
    },
    {
      "anonymous": false,
      "inputs": [
        {
          "indexed": true,
          "internalType": "bytes32",
          "name": "role",
          "type": "bytes32"
        },
        {
          "indexed": true,
          "internalType": "bytes32",
          "name": "previousAdminRole",
          "type": "bytes32"
        },
        {
          "indexed": true,
          "internalType": "bytes32",
          "name": "newAdminRole",
          "type": "bytes32"
        }
      ],
      "name": "RoleAdminChanged",
      "type": "event"
    },
    {
      "anonymous": false,
      "inputs": [
        {
          "indexed": true,
          "internalType": "bytes32",
          "name": "role",
          "type": "bytes32"
        },
        {
          "indexed": true,
          "internalType": "address",
          "name": "account",
          "type": "address"
        },
        {
          "indexed": true,
          "internalType": "address",
          "name": "sender",
          "type": "address"
        }
      ],
      "name": "RoleGranted",
      "type": "event"
    },
    {
      "anonymous": false,
      "inputs": [
        {
          "indexed": true,
          "internalType": "bytes32",
          "name": "role",
          "type": "bytes32"
        },
        {
          "indexed": true,
          "internalType": "address",
          "name": "account",
          "type": "address"
        },
        {
          "indexed": true,
          "internalType": "address",
          "name": "sender",
          "type": "address"
        }
      ],
      "name": "RoleRevoked",
      "type": "event"
    },
    {
      "anonymous": false,
      "inputs": [
        {
          "indexed": true,
          "internalType": "address",
          "name": "implementation",
          "type": "address"
        }
      ],
      "name": "Upgraded",
      "type": "event"
    },
    {
      "inputs": [],
      "name": "DEFAULT_ADMIN_ROLE",
      "outputs": [
        {
          "internalType": "bytes32",
          "name": "",
          "type": "bytes32"
        }
      ],
      "stateMutability": "view",
      "type": "function"
    },
    {
      "inputs": [],
      "name": "GAME_ROLE",
      "outputs": [
        {
          "internalType": "bytes32",
          "name": "",
          "type": "bytes32"
        }
      ],
      "stateMutability": "view",
      "type": "function"
    },
    {
      "inputs": [],
      "name": "UPGRADER_ROLE",
      "outputs": [
        {
          "internalType": "bytes32",
          "name": "",
          "type": "bytes32"
        }
      ],
      "stateMutability": "view",
      "type": "function"
    },
    {
      "inputs": [
        {
          "internalType": "address",
          "name": "nft",
          "type": "address"
        }
      ],
      "name": "addAvailableNFT",
      "outputs": [],
      "stateMutability": "nonpayable",
      "type": "function"
    },
    {
      "inputs": [
        {
          "internalType": "string",
          "name": "title",
          "type": "string"
        },
        {
          "internalType": "string",
          "name": "description",
          "type": "string"
        },
        {
          "internalType": "address[]",
          "name": "availableNFTs",
          "type": "address[]"
        },
        {
          "internalType": "uint32",
          "name": "maxParticipantCount",
          "type": "uint32"
        }
      ],
      "name": "create",
      "outputs": [],
      "stateMutability": "nonpayable",
      "type": "function"
    },
    {
      "inputs": [],
      "name": "getAvailableNFTs",
      "outputs": [
        {
          "internalType": "address[]",
          "name": "returnValue",
          "type": "address[]"
        }
      ],
      "stateMutability": "view",
      "type": "function"
    },
    {
      "inputs": [
        {
          "internalType": "uint256",
          "name": "battleId",
          "type": "uint256"
        }
      ],
      "name": "getBatchTokenURI",
      "outputs": [
        {
          "internalType": "string[]",
          "name": "tokenURIs",
          "type": "string[]"
        },
        {
          "internalType": "address[]",
          "name": "participantNFTs",
          "type": "address[]"
        },
        {
          "internalType": "uint256[]",
          "name": "participantTokenIds",
          "type": "uint256[]"
        }
      ],
      "stateMutability": "view",
      "type": "function"
    },
    {
      "inputs": [
        {
          "internalType": "uint256[]",
          "name": "battleIds",
          "type": "uint256[]"
        }
      ],
      "name": "getBattles",
      "outputs": [
        {
          "components": [
            {
              "internalType": "string",
              "name": "title",
              "type": "string"
            },
            {
              "internalType": "string",
              "name": "description",
              "type": "string"
            },
            {
              "internalType": "address[]",
              "name": "availableNFTs",
              "type": "address[]"
            },
            {
              "internalType": "uint32",
              "name": "maxParticipantCount",
              "type": "uint32"
            },
            {
              "internalType": "address[]",
              "name": "participantNFTs",
              "type": "address[]"
            },
            {
              "internalType": "uint256[]",
              "name": "participantTokenIds",
              "type": "uint256[]"
            },
            {
              "internalType": "bool",
              "name": "closed",
              "type": "bool"
            }
          ],
          "internalType": "struct IBattle.Battle[]",
          "name": "returnValue",
          "type": "tuple[]"
        }
      ],
      "stateMutability": "view",
      "type": "function"
    },
    {
      "inputs": [
        {
          "internalType": "bytes32",
          "name": "role",
          "type": "bytes32"
        }
      ],
      "name": "getRoleAdmin",
      "outputs": [
        {
          "internalType": "bytes32",
          "name": "",
          "type": "bytes32"
        }
      ],
      "stateMutability": "view",
      "type": "function"
    },
    {
      "inputs": [
        {
          "internalType": "bytes32",
          "name": "role",
          "type": "bytes32"
        },
        {
          "internalType": "uint256",
          "name": "index",
          "type": "uint256"
        }
      ],
      "name": "getRoleMember",
      "outputs": [
        {
          "internalType": "address",
          "name": "",
          "type": "address"
        }
      ],
      "stateMutability": "view",
      "type": "function"
    },
    {
      "inputs": [
        {
          "internalType": "bytes32",
          "name": "role",
          "type": "bytes32"
        }
      ],
      "name": "getRoleMemberCount",
      "outputs": [
        {
          "internalType": "uint256",
          "name": "",
          "type": "uint256"
        }
      ],
      "stateMutability": "view",
      "type": "function"
    },
    {
      "inputs": [],
      "name": "getTotalBattle",
      "outputs": [
        {
          "internalType": "uint256",
          "name": "returnValue",
          "type": "uint256"
        }
      ],
      "stateMutability": "view",
      "type": "function"
    },
    {
      "inputs": [
        {
          "internalType": "bytes32",
          "name": "role",
          "type": "bytes32"
        },
        {
          "internalType": "address",
          "name": "account",
          "type": "address"
        }
      ],
      "name": "grantRole",
      "outputs": [],
      "stateMutability": "nonpayable",
      "type": "function"
    },
    {
      "inputs": [
        {
          "internalType": "bytes32",
          "name": "role",
          "type": "bytes32"
        },
        {
          "internalType": "address",
          "name": "account",
          "type": "address"
        }
      ],
      "name": "hasRole",
      "outputs": [
        {
          "internalType": "bool",
          "name": "",
          "type": "bool"
        }
      ],
      "stateMutability": "view",
      "type": "function"
    },
    {
      "inputs": [],
      "name": "initialize",
      "outputs": [],
      "stateMutability": "nonpayable",
      "type": "function"
    },
    {
      "inputs": [
        {
          "internalType": "uint256",
          "name": "battleId",
          "type": "uint256"
        },
        {
          "internalType": "address",
          "name": "participantNFT",
          "type": "address"
        },
        {
          "internalType": "uint256",
          "name": "participantTokenId",
          "type": "uint256"
        }
      ],
      "name": "join",
      "outputs": [],
      "stateMutability": "nonpayable",
      "type": "function"
    },
    {
      "inputs": [],
      "name": "proxiableUUID",
      "outputs": [
        {
          "internalType": "bytes32",
          "name": "",
          "type": "bytes32"
        }
      ],
      "stateMutability": "view",
      "type": "function"
    },
    {
      "inputs": [
        {
          "internalType": "address",
          "name": "nft",
          "type": "address"
        }
      ],
      "name": "removeAvailableNFT",
      "outputs": [],
      "stateMutability": "nonpayable",
      "type": "function"
    },
    {
      "inputs": [
        {
          "internalType": "bytes32",
          "name": "role",
          "type": "bytes32"
        },
        {
          "internalType": "address",
          "name": "account",
          "type": "address"
        }
      ],
      "name": "renounceRole",
      "outputs": [],
      "stateMutability": "nonpayable",
      "type": "function"
    },
    {
      "inputs": [
        {
          "internalType": "bytes32",
          "name": "role",
          "type": "bytes32"
        },
        {
          "internalType": "address",
          "name": "account",
          "type": "address"
        }
      ],
      "name": "revokeRole",
      "outputs": [],
      "stateMutability": "nonpayable",
      "type": "function"
    },
    {
      "inputs": [
        {
          "internalType": "bytes4",
          "name": "interfaceId",
          "type": "bytes4"
        }
      ],
      "name": "supportsInterface",
      "outputs": [
        {
          "internalType": "bool",
          "name": "",
          "type": "bool"
        }
      ],
      "stateMutability": "view",
      "type": "function"
    },
    {
      "inputs": [
        {
          "internalType": "address",
          "name": "newImplementation",
          "type": "address"
        }
      ],
      "name": "upgradeTo",
      "outputs": [],
      "stateMutability": "nonpayable",
      "type": "function"
    },
    {
      "inputs": [
        {
          "internalType": "address",
          "name": "newImplementation",
          "type": "address"
        },
        {
          "internalType": "bytes",
          "name": "data",
          "type": "bytes"
        }
      ],
      "name": "upgradeToAndCall",
      "outputs": [],
      "stateMutability": "payable",
      "type": "function"
    }
  ],
  "bytecode": "0x60a0604052306080523480156200001557600080fd5b506200002062000026565b620000e7565b600054610100900460ff1615620000935760405162461bcd60e51b815260206004820152602760248201527f496e697469616c697a61626c653a20636f6e747261637420697320696e697469604482015266616c697a696e6760c81b606482015260840160405180910390fd5b60005460ff90811614620000e5576000805460ff191660ff9081179091556040519081527f7f26b83ff96e1f2b6a682f133852f6798a09c465da95921460cefb38474024989060200160405180910390a15b565b608051612bbb6200011f600039600081816107280152818161076801528181610c0e01528181610c4e0152610cdd0152612bbb6000f3fe6080604052600436106101405760003560e01c80638129fc1c116100b6578063ab4007061161006f578063ab40070614610389578063ab509a7c146103bd578063bb78b0b5146103ec578063ca15c8731461040c578063d547741f1461042c578063f72c0d8b1461044c57600080fd5b80638129fc1c146102d1578063868dd48d146102e65780639010d07c146102fc578063904c9e821461033457806391d1485414610354578063a217fddf1461037457600080fd5b806336568abe1161010857806336568abe1461021c5780633659cfe61461023c5780634cfbc81c1461025c5780634f1ef2861461028957806352d1902d1461029c5780637613c1d2146102b157600080fd5b806301ffc9a714610145578063119c845a1461017a578063248a9ca31461019c5780632f2ff15d146101da57806332702c95146101fa575b600080fd5b34801561015157600080fd5b506101656101603660046120db565b610480565b60405190151581526020015b60405180910390f35b34801561018657600080fd5b5061019a61019536600461211a565b6104ab565b005b3480156101a857600080fd5b506101cc6101b7366004612137565b60009081526065602052604090206001015490565b604051908152602001610171565b3480156101e657600080fd5b5061019a6101f5366004612150565b610613565b34801561020657600080fd5b5061020f61063d565b60405161017191906121c4565b34801561022857600080fd5b5061019a610237366004612150565b6106a0565b34801561024857600080fd5b5061019a61025736600461211a565b61071e565b34801561026857600080fd5b5061027c610277366004612242565b6107fd565b6040516101719190612358565b61019a6102973660046124b7565b610c04565b3480156102a857600080fd5b506101cc610cd0565b3480156102bd57600080fd5b5061019a6102cc36600461251b565b610d83565b3480156102dd57600080fd5b5061019a61109c565b3480156102f257600080fd5b50610130546101cc565b34801561030857600080fd5b5061031c610317366004612553565b611213565b6040516001600160a01b039091168152602001610171565b34801561034057600080fd5b5061019a61034f3660046125ae565b611232565b34801561036057600080fd5b5061016561036f366004612150565b61138f565b34801561038057600080fd5b506101cc600081565b34801561039557600080fd5b506101cc7f6a64baf327d646d1bca72653e2a075d15fd6ac6d8cbd7f6ee03fc55875e0fa8881565b3480156103c957600080fd5b506103dd6103d8366004612137565b6113ba565b604051610171939291906126a6565b3480156103f857600080fd5b5061019a61040736600461211a565b6115ca565b34801561041857600080fd5b506101cc610427366004612137565b6116b6565b34801561043857600080fd5b5061019a610447366004612150565b6116cd565b34801561045857600080fd5b506101cc7f189ab7a9244df0848122154315af71fe140f3db0fe014031783b0946b8c9d2e381565b60006001600160e01b03198216635a05180f60e01b14806104a557506104a5826116f2565b92915050565b60006104b681611727565b6001600160a01b038216600090815261012f602052604090205460ff166104f85760405162461bcd60e51b81526004016104ef90612727565b60405180910390fd5b6001600160a01b038216600090815261012f60209081526040808320805460ff1916905561012e90915281205461012d805491929161053990600190612774565b8154811061054957610549612787565b6000918252602090912001546001600160a01b039081169150841681146105ba578061012d838154811061057f5761057f612787565b600091825260208083209190910180546001600160a01b0319166001600160a01b03948516179055918316815261012e909152604090208290555b61012d8054806105cc576105cc61279d565b60008281526020808220830160001990810180546001600160a01b03191690559092019092556001600160a01b0395909516815261012e9094525050604082209190915550565b60008281526065602052604090206001015461062e81611727565b6106388383611731565b505050565b606061012d80548060200260200160405190810160405280929190818152602001828054801561069657602002820191906000526020600020905b81546001600160a01b03168152600190910190602001808311610678575b5050505050905090565b6001600160a01b03811633146107105760405162461bcd60e51b815260206004820152602f60248201527f416363657373436f6e74726f6c3a2063616e206f6e6c792072656e6f756e636560448201526e103937b632b9903337b91039b2b63360891b60648201526084016104ef565b61071a8282611753565b5050565b6001600160a01b037f00000000000000000000000000000000000000000000000000000000000000001630036107665760405162461bcd60e51b81526004016104ef906127b3565b7f00000000000000000000000000000000000000000000000000000000000000006001600160a01b03166107af600080516020612b3f833981519152546001600160a01b031690565b6001600160a01b0316146107d55760405162461bcd60e51b81526004016104ef906127ff565b6107de81611775565b604080516000808252602082019092526107fa9183919061179f565b50565b80516060908067ffffffffffffffff81111561081b5761081b6121d7565b60405190808252806020026020018201604052801561089457816020015b6108816040518060e00160405280606081526020016060815260200160608152602001600063ffffffff16815260200160608152602001606081526020016000151581525090565b8152602001906001900390816108395790505b50915060005b81811015610bfd5760008482815181106108b6576108b6612787565b602002602001015190506101305481106109125760405162461bcd60e51b815260206004820181905260248201527f426174746c653a20626174746c654964206973206f7574206f662072616e676560448201526064016104ef565b6040518060e001604052806101316000848152602001908152602001600020805461093c9061284b565b80601f01602080910402602001604051908101604052809291908181526020018280546109689061284b565b80156109b55780601f1061098a576101008083540402835291602001916109b5565b820191906000526020600020905b81548152906001019060200180831161099857829003601f168201915b50505050508152602001610132600084815260200190815260200160002080546109de9061284b565b80601f0160208091040260200160405190810160405280929190818152602001828054610a0a9061284b565b8015610a575780601f10610a2c57610100808354040283529160200191610a57565b820191906000526020600020905b815481529060010190602001808311610a3a57829003601f168201915b505050505081526020016101336000848152602001908152602001600020805480602002602001604051908101604052809291908181526020018280548015610ac957602002820191906000526020600020905b81546001600160a01b03168152600190910190602001808311610aab575b50505091835250506000838152610134602090815260408083205463ffffffff16828501528583526101358252918290208054835181840281018401855281815293909401939091830182828015610b4a57602002820191906000526020600020905b81546001600160a01b03168152600190910190602001808311610b2c575b505050505081526020016101366000848152602001908152602001600020805480602002602001604051908101604052809291908181526020018280548015610bb257602002820191906000526020600020905b815481526020019060010190808311610b9e575b50505091835250506000838152610137602090815260409091205460ff1615159101528451859084908110610be957610be9612787565b60209081029190910101525060010161089a565b5050919050565b6001600160a01b037f0000000000000000000000000000000000000000000000000000000000000000163003610c4c5760405162461bcd60e51b81526004016104ef906127b3565b7f00000000000000000000000000000000000000000000000000000000000000006001600160a01b0316610c95600080516020612b3f833981519152546001600160a01b031690565b6001600160a01b031614610cbb5760405162461bcd60e51b81526004016104ef906127ff565b610cc482611775565b61071a8282600161179f565b6000306001600160a01b037f00000000000000000000000000000000000000000000000000000000000000001614610d705760405162461bcd60e51b815260206004820152603860248201527f555550535570677261646561626c653a206d757374206e6f742062652063616c60448201527f6c6564207468726f7567682064656c656761746563616c6c000000000000000060648201526084016104ef565b50600080516020612b3f83398151915290565b6001600160a01b038216600090815261012f6020526040902054829060ff16610dbe5760405162461bcd60e51b81526004016104ef90612727565b610130548410610e105760405162461bcd60e51b815260206004820181905260248201527f426174746c653a20626174746c654964206973206f7574206f662072616e676560448201526064016104ef565b600084815261013560209081526040808320546101349092529091205463ffffffff168110610e925760405162461bcd60e51b815260206004820152602860248201527f426174746c653a206d6178207061727469636970616e7420636f756e74206973604482015267081c995858da195960c21b60648201526084016104ef565b6040516331a9108f60e11b815260048101849052849033906001600160a01b03831690636352211e90602401602060405180830381865afa158015610edb573d6000803e3d6000fd5b505050506040513d601f19601f82011682018060405250810190610eff9190612885565b6001600160a01b031614610f555760405162461bcd60e51b815260206004820152601f60248201527f426174746c653a206d73672e73656e646572206973206e6f74206f776e65720060448201526064016104ef565b60005b828110156110395760008781526101356020526040902080546001600160a01b038816919083908110610f8d57610f8d612787565b6000918252602090912001546001600160a01b03160361103157600087815261013660205260409020805486919083908110610fcb57610fcb612787565b9060005260206000200154036110315760405162461bcd60e51b815260206004820152602560248201527f426174746c653a207061727469636970616e7420697320616c7265616479206a6044820152641bda5b995960da1b60648201526084016104ef565b600101610f58565b5050506000848152610135602090815260408083208054600180820183559185528385200180546001600160a01b0319166001600160a01b0398909816979097179096559582526101368152948120805494850181558152939093209091015550565b600054610100900460ff16158080156110bc5750600054600160ff909116105b806110d65750303b1580156110d6575060005460ff166001145b6111395760405162461bcd60e51b815260206004820152602e60248201527f496e697469616c697a61626c653a20636f6e747261637420697320616c72656160448201526d191e481a5b9a5d1a585b1a5e995960921b60648201526084016104ef565b6000805460ff19166001179055801561115c576000805461ff0019166101001790555b61116461190a565b61116c61190a565b611177600033611731565b6111a17f189ab7a9244df0848122154315af71fe140f3db0fe014031783b0946b8c9d2e333611731565b6111cb7f6a64baf327d646d1bca72653e2a075d15fd6ac6d8cbd7f6ee03fc55875e0fa8833611731565b80156107fa576000805461ff0019169055604051600181527f7f26b83ff96e1f2b6a682f133852f6798a09c465da95921460cefb38474024989060200160405180910390a150565b600082815260976020526040812061122b9083611977565b9392505050565b81518290600081900361127f5760405162461bcd60e51b8152602060048201526015602482015274426174746c653a206e66747320697320656d70747960581b60448201526064016104ef565b60005b818110156112ec5761012f60008483815181106112a1576112a1612787565b6020908102919091018101516001600160a01b031682528101919091526040016000205460ff166112e45760405162461bcd60e51b81526004016104ef90612727565b600101611282565b506101305460009081526101316020526040902061130a87826128f0565b506101305460009081526101326020526040902061132886826128f0565b5061013054600090815261013360209081526040909120855161134d92870190612061565b506101308054600090815261013460205260408120805463ffffffff191663ffffffff871617905581549190611382836129b0565b9190505550505050505050565b60009182526065602090815260408084206001600160a01b0393909316845291905290205460ff1690565b6060806060610135600085815260200190815260200160002080548060200260200160405190810160405280929190818152602001828054801561142757602002820191906000526020600020905b81546001600160a01b03168152600190910190602001808311611409575b50505050509150610136600085815260200190815260200160002080548060200260200160405190810160405280929190818152602001828054801561148c57602002820191906000526020600020905b815481526020019060010190808311611478575b50508551939450839250505067ffffffffffffffff8111156114b0576114b06121d7565b6040519080825280602002602001820160405280156114e357816020015b60608152602001906001900390816114ce5790505b50935060005b818110156115c157600084828151811061150557611505612787565b60200260200101519050806001600160a01b031663c87b56dd85848151811061153057611530612787565b60200260200101516040518263ffffffff1660e01b815260040161155691815260200190565b600060405180830381865afa158015611573573d6000803e3d6000fd5b505050506040513d6000823e601f3d908101601f1916820160405261159b91908101906129c9565b8683815181106115ad576115ad612787565b6020908102919091010152506001016114e9565b50509193909250565b60006115d581611727565b6001600160a01b038216600090815261012f602052604090205460ff161561163f5760405162461bcd60e51b815260206004820181905260248201527f426174746c653a206e667420697320616c726561647920617661696c61626c6560448201526064016104ef565b506001600160a01b0316600081815261012f60209081526040808320805460ff1916600190811790915561012d805461012e909452918420839055820181559091527f193a3ae4da5049eb74cee39e4cf5827f7ce7b1d1d1775ef1c6311eb60558e6d50180546001600160a01b0319169091179055565b60008181526097602052604081206104a590611983565b6000828152606560205260409020600101546116e881611727565b6106388383611753565b60006001600160e01b03198216637965db0b60e01b14806104a557506301ffc9a760e01b6001600160e01b03198316146104a5565b6107fa813361198d565b61173b82826119e6565b60008281526097602052604090206106389082611a6c565b61175d8282611a81565b60008281526097602052604090206106389082611ae8565b7f189ab7a9244df0848122154315af71fe140f3db0fe014031783b0946b8c9d2e361071a81611727565b7f4910fdfa16fed3260ed0e7147f7cc6da11a60208b5b9406d12a635614ffd91435460ff16156117d25761063883611afd565b826001600160a01b03166352d1902d6040518163ffffffff1660e01b8152600401602060405180830381865afa92505050801561182c575060408051601f3d908101601f1916820190925261182991810190612a40565b60015b61188f5760405162461bcd60e51b815260206004820152602e60248201527f45524331393637557067726164653a206e657720696d706c656d656e7461746960448201526d6f6e206973206e6f74205555505360901b60648201526084016104ef565b600080516020612b3f83398151915281146118fe5760405162461bcd60e51b815260206004820152602960248201527f45524331393637557067726164653a20756e737570706f727465642070726f786044820152681a58589b195555525160ba1b60648201526084016104ef565b50610638838383611b99565b600054610100900460ff166119755760405162461bcd60e51b815260206004820152602b60248201527f496e697469616c697a61626c653a20636f6e7472616374206973206e6f74206960448201526a6e697469616c697a696e6760a81b60648201526084016104ef565b565b600061122b8383611bc4565b60006104a5825490565b611997828261138f565b61071a576119a481611bee565b6119af836020611c00565b6040516020016119c0929190612a59565b60408051601f198184030181529082905262461bcd60e51b82526104ef91600401612ace565b6119f0828261138f565b61071a5760008281526065602090815260408083206001600160a01b03851684529091529020805460ff19166001179055611a283390565b6001600160a01b0316816001600160a01b0316837f2f8788117e7eff1d82e926ec794901d17c78024a50270940304540a733656f0d60405160405180910390a45050565b600061122b836001600160a01b038416611d9c565b611a8b828261138f565b1561071a5760008281526065602090815260408083206001600160a01b0385168085529252808320805460ff1916905551339285917ff6391f5c32d9c69d2a47ea670b442974b53935d1edc7fd64eb21e047a839171b9190a45050565b600061122b836001600160a01b038416611deb565b6001600160a01b0381163b611b6a5760405162461bcd60e51b815260206004820152602d60248201527f455243313936373a206e657720696d706c656d656e746174696f6e206973206e60448201526c1bdd08184818dbdb9d1c9858dd609a1b60648201526084016104ef565b600080516020612b3f83398151915280546001600160a01b0319166001600160a01b0392909216919091179055565b611ba283611ede565b600082511180611baf5750805b1561063857611bbe8383611f1e565b50505050565b6000826000018281548110611bdb57611bdb612787565b9060005260206000200154905092915050565b60606104a56001600160a01b03831660145b60606000611c0f836002612ae1565b611c1a906002612af8565b67ffffffffffffffff811115611c3257611c326121d7565b6040519080825280601f01601f191660200182016040528015611c5c576020820181803683370190505b509050600360fc1b81600081518110611c7757611c77612787565b60200101906001600160f81b031916908160001a905350600f60fb1b81600181518110611ca657611ca6612787565b60200101906001600160f81b031916908160001a9053506000611cca846002612ae1565b611cd5906001612af8565b90505b6001811115611d4d576f181899199a1a9b1b9c1cb0b131b232b360811b85600f1660108110611d0957611d09612787565b1a60f81b828281518110611d1f57611d1f612787565b60200101906001600160f81b031916908160001a90535060049490941c93611d4681612b0b565b9050611cd8565b50831561122b5760405162461bcd60e51b815260206004820181905260248201527f537472696e67733a20686578206c656e67746820696e73756666696369656e7460448201526064016104ef565b6000818152600183016020526040812054611de3575081546001818101845560008481526020808220909301849055845484825282860190935260409020919091556104a5565b5060006104a5565b60008181526001830160205260408120548015611ed4576000611e0f600183612774565b8554909150600090611e2390600190612774565b9050818114611e88576000866000018281548110611e4357611e43612787565b9060005260206000200154905080876000018481548110611e6657611e66612787565b6000918252602080832090910192909255918252600188019052604090208390555b8554869080611e9957611e9961279d565b6001900381819060005260206000200160009055905585600101600086815260200190815260200160002060009055600193505050506104a5565b60009150506104a5565b611ee781611afd565b6040516001600160a01b038216907fbc7cd75a20ee27fd9adebab32041f755214dbc6bffa90cc0225b39da2e5c2d3b90600090a250565b606061122b8383604051806060016040528060278152602001612b5f602791396060600080856001600160a01b031685604051611f5b9190612b22565b600060405180830381855af49150503d8060008114611f96576040519150601f19603f3d011682016040523d82523d6000602084013e611f9b565b606091505b5091509150611fac86838387611fb6565b9695505050505050565b6060831561202557825160000361201e576001600160a01b0385163b61201e5760405162461bcd60e51b815260206004820152601d60248201527f416464726573733a2063616c6c20746f206e6f6e2d636f6e747261637400000060448201526064016104ef565b508161202f565b61202f8383612037565b949350505050565b8151156120475781518083602001fd5b8060405162461bcd60e51b81526004016104ef9190612ace565b8280548282559060005260206000209081019282156120b6579160200282015b828111156120b657825182546001600160a01b0319166001600160a01b03909116178255602090920191600190910190612081565b506120c29291506120c6565b5090565b5b808211156120c257600081556001016120c7565b6000602082840312156120ed57600080fd5b81356001600160e01b03198116811461122b57600080fd5b6001600160a01b03811681146107fa57600080fd5b60006020828403121561212c57600080fd5b813561122b81612105565b60006020828403121561214957600080fd5b5035919050565b6000806040838503121561216357600080fd5b82359150602083013561217581612105565b809150509250929050565b600081518084526020808501945080840160005b838110156121b95781516001600160a01b031687529582019590820190600101612194565b509495945050505050565b60208152600061122b6020830184612180565b634e487b7160e01b600052604160045260246000fd5b604051601f8201601f1916810167ffffffffffffffff81118282101715612216576122166121d7565b604052919050565b600067ffffffffffffffff821115612238576122386121d7565b5060051b60200190565b6000602080838503121561225557600080fd5b823567ffffffffffffffff81111561226c57600080fd5b8301601f8101851361227d57600080fd5b803561229061228b8261221e565b6121ed565b81815260059190911b820183019083810190878311156122af57600080fd5b928401925b828410156122cd578335825292840192908401906122b4565b979650505050505050565b60005b838110156122f35781810151838201526020016122db565b50506000910152565b600081518084526123148160208601602086016122d8565b601f01601f19169290920160200192915050565b600081518084526020808501945080840160005b838110156121b95781518752958201959082019060010161233c565b60006020808301818452808551808352604092508286019150828160051b87010184880160005b8381101561244857603f19898403018552815160e081518186526123a5828701826122fc565b915050888201518582038a8701526123bd82826122fc565b91505087820151858203898701526123d58282612180565b915050606063ffffffff81840151168187015250608080830151868303828801526124008382612180565b9250505060a0808301518683038288015261241b8382612328565b9250505060c08083015192506124348187018415159052565b50958801959350509086019060010161237f565b509098975050505050505050565b600067ffffffffffffffff821115612470576124706121d7565b50601f01601f191660200190565b600061248c61228b84612456565b90508281528383830111156124a057600080fd5b828260208301376000602084830101529392505050565b600080604083850312156124ca57600080fd5b82356124d581612105565b9150602083013567ffffffffffffffff8111156124f157600080fd5b8301601f8101851361250257600080fd5b6125118582356020840161247e565b9150509250929050565b60008060006060848603121561253057600080fd5b83359250602084013561254281612105565b929592945050506040919091013590565b6000806040838503121561256657600080fd5b50508035926020909101359150565b600082601f83011261258657600080fd5b61122b8383356020850161247e565b803563ffffffff811681146125a957600080fd5b919050565b600080600080608085870312156125c457600080fd5b843567ffffffffffffffff808211156125dc57600080fd5b6125e888838901612575565b95506020915081870135818111156125ff57600080fd5b61260b89828a01612575565b95505060408701358181111561262057600080fd5b87019050601f8101881361263357600080fd5b803561264161228b8261221e565b81815260059190911b8201830190838101908a83111561266057600080fd5b928401925b8284101561268757833561267881612105565b82529284019290840190612665565b809650505050505061269b60608601612595565b905092959194509250565b6000606082016060835280865180835260808501915060808160051b8601019250602080890160005b838110156126fd57607f198887030185526126eb8683516122fc565b955093820193908201906001016126cf565b5050858403818701525050506127138186612180565b90508281036040840152611fac8185612328565b6020808252601c908201527f426174746c653a206e6674206973206e6f7420617661696c61626c6500000000604082015260600190565b634e487b7160e01b600052601160045260246000fd5b818103818111156104a5576104a561275e565b634e487b7160e01b600052603260045260246000fd5b634e487b7160e01b600052603160045260246000fd5b6020808252602c908201527f46756e6374696f6e206d7573742062652063616c6c6564207468726f7567682060408201526b19195b1959d85d1958d85b1b60a21b606082015260800190565b6020808252602c908201527f46756e6374696f6e206d7573742062652063616c6c6564207468726f7567682060408201526b6163746976652070726f787960a01b606082015260800190565b600181811c9082168061285f57607f821691505b60208210810361287f57634e487b7160e01b600052602260045260246000fd5b50919050565b60006020828403121561289757600080fd5b815161122b81612105565b601f82111561063857600081815260208120601f850160051c810160208610156128c95750805b601f850160051c820191505b818110156128e8578281556001016128d5565b505050505050565b815167ffffffffffffffff81111561290a5761290a6121d7565b61291e81612918845461284b565b846128a2565b602080601f831160018114612953576000841561293b5750858301515b600019600386901b1c1916600185901b1785556128e8565b600085815260208120601f198616915b8281101561298257888601518255948401946001909101908401612963565b50858210156129a05787850151600019600388901b60f8161c191681555b5050505050600190811b01905550565b6000600182016129c2576129c261275e565b5060010190565b6000602082840312156129db57600080fd5b815167ffffffffffffffff8111156129f257600080fd5b8201601f81018413612a0357600080fd5b8051612a1161228b82612456565b818152856020838501011115612a2657600080fd5b612a378260208301602086016122d8565b95945050505050565b600060208284031215612a5257600080fd5b5051919050565b7f416363657373436f6e74726f6c3a206163636f756e7420000000000000000000815260008351612a918160178501602088016122d8565b7001034b99036b4b9b9b4b733903937b6329607d1b6017918401918201528351612ac28160288401602088016122d8565b01602801949350505050565b60208152600061122b60208301846122fc565b80820281158282048414176104a5576104a561275e565b808201808211156104a5576104a561275e565b600081612b1a57612b1a61275e565b506000190190565b60008251612b348184602087016122d8565b919091019291505056fe360894a13ba1a3210667c828492db98dca3e2076cc3735a920a3ca505d382bbc416464726573733a206c6f772d6c6576656c2064656c65676174652063616c6c206661696c6564a2646970667358221220f1a4c89138ca95df31e96c111f1b8e71cd95de681a88fc2973d6847e9266a4d964736f6c63430008120033",
  "linkReferences": {},
  "deployedLinkReferences": {}
}