{
  "_format": "hh-sol-artifact-1",
  "contractName": "Battle",
  "sourceName": "contracts/battle/Battle.sol",
  "abi": [
    {
      "inputs": [],
      "stateMutability": "nonpayable",
      "type": "constructor"
    },
    {
      "anonymous": false,
      "inputs": [
        {
          "indexed": false,
          "internalType": "address",
          "name": "previousAdmin",
          "type": "address"
        },
        {
          "indexed": false,
          "internalType": "address",
          "name": "newAdmin",
          "type": "address"
        }
      ],
      "name": "AdminChanged",
      "type": "event"
    },
    {
      "anonymous": false,
      "inputs": [
        {
          "indexed": true,
          "internalType": "address",
          "name": "beacon",
          "type": "address"
        }
      ],
      "name": "BeaconUpgraded",
      "type": "event"
    },
    {
      "anonymous": false,
      "inputs": [
        {
          "indexed": false,
          "internalType": "uint8",
          "name": "version",
          "type": "uint8"
        }
      ],
      "name": "Initialized",
      "type": "event"
    },
    {
      "anonymous": false,
      "inputs": [
        {
          "indexed": true,
          "internalType": "bytes32",
          "name": "role",
          "type": "bytes32"
        },
        {
          "indexed": true,
          "internalType": "bytes32",
          "name": "previousAdminRole",
          "type": "bytes32"
        },
        {
          "indexed": true,
          "internalType": "bytes32",
          "name": "newAdminRole",
          "type": "bytes32"
        }
      ],
      "name": "RoleAdminChanged",
      "type": "event"
    },
    {
      "anonymous": false,
      "inputs": [
        {
          "indexed": true,
          "internalType": "bytes32",
          "name": "role",
          "type": "bytes32"
        },
        {
          "indexed": true,
          "internalType": "address",
          "name": "account",
          "type": "address"
        },
        {
          "indexed": true,
          "internalType": "address",
          "name": "sender",
          "type": "address"
        }
      ],
      "name": "RoleGranted",
      "type": "event"
    },
    {
      "anonymous": false,
      "inputs": [
        {
          "indexed": true,
          "internalType": "bytes32",
          "name": "role",
          "type": "bytes32"
        },
        {
          "indexed": true,
          "internalType": "address",
          "name": "account",
          "type": "address"
        },
        {
          "indexed": true,
          "internalType": "address",
          "name": "sender",
          "type": "address"
        }
      ],
      "name": "RoleRevoked",
      "type": "event"
    },
    {
      "anonymous": false,
      "inputs": [
        {
          "indexed": true,
          "internalType": "address",
          "name": "implementation",
          "type": "address"
        }
      ],
      "name": "Upgraded",
      "type": "event"
    },
    {
      "inputs": [],
      "name": "DEFAULT_ADMIN_ROLE",
      "outputs": [
        {
          "internalType": "bytes32",
          "name": "",
          "type": "bytes32"
        }
      ],
      "stateMutability": "view",
      "type": "function"
    },
    {
      "inputs": [],
      "name": "GAME_ROLE",
      "outputs": [
        {
          "internalType": "bytes32",
          "name": "",
          "type": "bytes32"
        }
      ],
      "stateMutability": "view",
      "type": "function"
    },
    {
      "inputs": [],
      "name": "UPGRADER_ROLE",
      "outputs": [
        {
          "internalType": "bytes32",
          "name": "",
          "type": "bytes32"
        }
      ],
      "stateMutability": "view",
      "type": "function"
    },
    {
      "inputs": [
        {
          "internalType": "address",
          "name": "nft",
          "type": "address"
        }
      ],
      "name": "addAvailableNFT",
      "outputs": [],
      "stateMutability": "nonpayable",
      "type": "function"
    },
    {
      "inputs": [
        {
          "internalType": "string",
          "name": "title",
          "type": "string"
        },
        {
          "internalType": "string",
          "name": "description",
          "type": "string"
        },
        {
          "internalType": "address[]",
          "name": "availableNFTs",
          "type": "address[]"
        },
        {
          "internalType": "uint32",
          "name": "maxParticipantCount",
          "type": "uint32"
        }
      ],
      "name": "create",
      "outputs": [],
      "stateMutability": "nonpayable",
      "type": "function"
    },
    {
      "inputs": [],
      "name": "getAvailableNFTs",
      "outputs": [
        {
          "internalType": "address[]",
          "name": "returnValue",
          "type": "address[]"
        }
      ],
      "stateMutability": "view",
      "type": "function"
    },
    {
      "inputs": [
        {
          "internalType": "uint256",
          "name": "battleId",
          "type": "uint256"
        }
      ],
      "name": "getBatchTokenURI",
      "outputs": [
        {
          "internalType": "string[]",
          "name": "returnValue",
          "type": "string[]"
        }
      ],
      "stateMutability": "view",
      "type": "function"
    },
    {
      "inputs": [
        {
          "internalType": "uint256[]",
          "name": "battleIds",
          "type": "uint256[]"
        }
      ],
      "name": "getBattles",
      "outputs": [
        {
          "components": [
            {
              "internalType": "string",
              "name": "title",
              "type": "string"
            },
            {
              "internalType": "string",
              "name": "description",
              "type": "string"
            },
            {
              "internalType": "address[]",
              "name": "availableNFTs",
              "type": "address[]"
            },
            {
              "internalType": "uint32",
              "name": "maxParticipantCount",
              "type": "uint32"
            },
            {
              "internalType": "address[]",
              "name": "participantNFTs",
              "type": "address[]"
            },
            {
              "internalType": "uint256[]",
              "name": "participantTokenIds",
              "type": "uint256[]"
            },
            {
              "internalType": "bool",
              "name": "closed",
              "type": "bool"
            }
          ],
          "internalType": "struct IBattle.Battle[]",
          "name": "returnValue",
          "type": "tuple[]"
        }
      ],
      "stateMutability": "view",
      "type": "function"
    },
    {
      "inputs": [
        {
          "internalType": "bytes32",
          "name": "role",
          "type": "bytes32"
        }
      ],
      "name": "getRoleAdmin",
      "outputs": [
        {
          "internalType": "bytes32",
          "name": "",
          "type": "bytes32"
        }
      ],
      "stateMutability": "view",
      "type": "function"
    },
    {
      "inputs": [
        {
          "internalType": "bytes32",
          "name": "role",
          "type": "bytes32"
        },
        {
          "internalType": "uint256",
          "name": "index",
          "type": "uint256"
        }
      ],
      "name": "getRoleMember",
      "outputs": [
        {
          "internalType": "address",
          "name": "",
          "type": "address"
        }
      ],
      "stateMutability": "view",
      "type": "function"
    },
    {
      "inputs": [
        {
          "internalType": "bytes32",
          "name": "role",
          "type": "bytes32"
        }
      ],
      "name": "getRoleMemberCount",
      "outputs": [
        {
          "internalType": "uint256",
          "name": "",
          "type": "uint256"
        }
      ],
      "stateMutability": "view",
      "type": "function"
    },
    {
      "inputs": [],
      "name": "getTotalBattle",
      "outputs": [
        {
          "internalType": "uint256",
          "name": "returnValue",
          "type": "uint256"
        }
      ],
      "stateMutability": "view",
      "type": "function"
    },
    {
      "inputs": [
        {
          "internalType": "bytes32",
          "name": "role",
          "type": "bytes32"
        },
        {
          "internalType": "address",
          "name": "account",
          "type": "address"
        }
      ],
      "name": "grantRole",
      "outputs": [],
      "stateMutability": "nonpayable",
      "type": "function"
    },
    {
      "inputs": [
        {
          "internalType": "bytes32",
          "name": "role",
          "type": "bytes32"
        },
        {
          "internalType": "address",
          "name": "account",
          "type": "address"
        }
      ],
      "name": "hasRole",
      "outputs": [
        {
          "internalType": "bool",
          "name": "",
          "type": "bool"
        }
      ],
      "stateMutability": "view",
      "type": "function"
    },
    {
      "inputs": [],
      "name": "initialize",
      "outputs": [],
      "stateMutability": "nonpayable",
      "type": "function"
    },
    {
      "inputs": [
        {
          "internalType": "uint256",
          "name": "battleId",
          "type": "uint256"
        },
        {
          "internalType": "address",
          "name": "participantNFT",
          "type": "address"
        },
        {
          "internalType": "uint256",
          "name": "participantTokenId",
          "type": "uint256"
        }
      ],
      "name": "join",
      "outputs": [],
      "stateMutability": "nonpayable",
      "type": "function"
    },
    {
      "inputs": [],
      "name": "proxiableUUID",
      "outputs": [
        {
          "internalType": "bytes32",
          "name": "",
          "type": "bytes32"
        }
      ],
      "stateMutability": "view",
      "type": "function"
    },
    {
      "inputs": [
        {
          "internalType": "address",
          "name": "nft",
          "type": "address"
        }
      ],
      "name": "removeAvailableNFT",
      "outputs": [],
      "stateMutability": "nonpayable",
      "type": "function"
    },
    {
      "inputs": [
        {
          "internalType": "bytes32",
          "name": "role",
          "type": "bytes32"
        },
        {
          "internalType": "address",
          "name": "account",
          "type": "address"
        }
      ],
      "name": "renounceRole",
      "outputs": [],
      "stateMutability": "nonpayable",
      "type": "function"
    },
    {
      "inputs": [
        {
          "internalType": "bytes32",
          "name": "role",
          "type": "bytes32"
        },
        {
          "internalType": "address",
          "name": "account",
          "type": "address"
        }
      ],
      "name": "revokeRole",
      "outputs": [],
      "stateMutability": "nonpayable",
      "type": "function"
    },
    {
      "inputs": [
        {
          "internalType": "bytes4",
          "name": "interfaceId",
          "type": "bytes4"
        }
      ],
      "name": "supportsInterface",
      "outputs": [
        {
          "internalType": "bool",
          "name": "",
          "type": "bool"
        }
      ],
      "stateMutability": "view",
      "type": "function"
    },
    {
      "inputs": [
        {
          "internalType": "address",
          "name": "newImplementation",
          "type": "address"
        }
      ],
      "name": "upgradeTo",
      "outputs": [],
      "stateMutability": "nonpayable",
      "type": "function"
    },
    {
      "inputs": [
        {
          "internalType": "address",
          "name": "newImplementation",
          "type": "address"
        },
        {
          "internalType": "bytes",
          "name": "data",
          "type": "bytes"
        }
      ],
      "name": "upgradeToAndCall",
      "outputs": [],
      "stateMutability": "payable",
      "type": "function"
    }
  ],
  "bytecode": "0x60a0604052306080523480156200001557600080fd5b506200002062000026565b620000e7565b600054610100900460ff1615620000935760405162461bcd60e51b815260206004820152602760248201527f496e697469616c697a61626c653a20636f6e747261637420697320696e697469604482015266616c697a696e6760c81b606482015260840160405180910390fd5b60005460ff90811614620000e5576000805460ff191660ff9081179091556040519081527f7f26b83ff96e1f2b6a682f133852f6798a09c465da95921460cefb38474024989060200160405180910390a15b565b608051612bc96200011f600039600081816107260152818161076601528181610c0c01528181610c4c0152610cdb0152612bc96000f3fe6080604052600436106101405760003560e01c80638129fc1c116100b6578063ab4007061161006f578063ab40070614610389578063ab509a7c146103bd578063bb78b0b5146103ea578063ca15c8731461040a578063d547741f1461042a578063f72c0d8b1461044a57600080fd5b80638129fc1c146102d1578063868dd48d146102e65780639010d07c146102fc578063904c9e821461033457806391d1485414610354578063a217fddf1461037457600080fd5b806336568abe1161010857806336568abe1461021c5780633659cfe61461023c5780634cfbc81c1461025c5780634f1ef2861461028957806352d1902d1461029c5780637613c1d2146102b157600080fd5b806301ffc9a714610145578063119c845a1461017a578063248a9ca31461019c5780632f2ff15d146101da57806332702c95146101fa575b600080fd5b34801561015157600080fd5b506101656101603660046120ce565b61047e565b60405190151581526020015b60405180910390f35b34801561018657600080fd5b5061019a61019536600461210d565b6104a9565b005b3480156101a857600080fd5b506101cc6101b736600461212a565b60009081526065602052604090206001015490565b604051908152602001610171565b3480156101e657600080fd5b5061019a6101f5366004612143565b610611565b34801561020657600080fd5b5061020f61063b565b6040516101719190612173565b34801561022857600080fd5b5061019a610237366004612143565b61069e565b34801561024857600080fd5b5061019a61025736600461210d565b61071c565b34801561026857600080fd5b5061027c61027736600461222b565b6107fb565b6040516101719190612385565b61019a6102973660046124e4565b610c02565b3480156102a857600080fd5b506101cc610cce565b3480156102bd57600080fd5b5061019a6102cc366004612548565b610d81565b3480156102dd57600080fd5b5061019a61109a565b3480156102f257600080fd5b50610130546101cc565b34801561030857600080fd5b5061031c610317366004612580565b611211565b6040516001600160a01b039091168152602001610171565b34801561034057600080fd5b5061019a61034f3660046125db565b611230565b34801561036057600080fd5b5061016561036f366004612143565b61138d565b34801561038057600080fd5b506101cc600081565b34801561039557600080fd5b506101cc7f6a64baf327d646d1bca72653e2a075d15fd6ac6d8cbd7f6ee03fc55875e0fa8881565b3480156103c957600080fd5b506103dd6103d836600461212a565b6113b8565b60405161017191906126d3565b3480156103f657600080fd5b5061019a61040536600461210d565b6115bd565b34801561041657600080fd5b506101cc61042536600461212a565b6116a9565b34801561043657600080fd5b5061019a610445366004612143565b6116c0565b34801561045657600080fd5b506101cc7f189ab7a9244df0848122154315af71fe140f3db0fe014031783b0946b8c9d2e381565b60006001600160e01b03198216635a05180f60e01b14806104a357506104a3826116e5565b92915050565b60006104b48161171a565b6001600160a01b038216600090815261012f602052604090205460ff166104f65760405162461bcd60e51b81526004016104ed90612735565b60405180910390fd5b6001600160a01b038216600090815261012f60209081526040808320805460ff1916905561012e90915281205461012d805491929161053790600190612782565b8154811061054757610547612795565b6000918252602090912001546001600160a01b039081169150841681146105b8578061012d838154811061057d5761057d612795565b600091825260208083209190910180546001600160a01b0319166001600160a01b03948516179055918316815261012e909152604090208290555b61012d8054806105ca576105ca6127ab565b60008281526020808220830160001990810180546001600160a01b03191690559092019092556001600160a01b0395909516815261012e9094525050604082209190915550565b60008281526065602052604090206001015461062c8161171a565b6106368383611724565b505050565b606061012d80548060200260200160405190810160405280929190818152602001828054801561069457602002820191906000526020600020905b81546001600160a01b03168152600190910190602001808311610676575b5050505050905090565b6001600160a01b038116331461070e5760405162461bcd60e51b815260206004820152602f60248201527f416363657373436f6e74726f6c3a2063616e206f6e6c792072656e6f756e636560448201526e103937b632b9903337b91039b2b63360891b60648201526084016104ed565b6107188282611746565b5050565b6001600160a01b037f00000000000000000000000000000000000000000000000000000000000000001630036107645760405162461bcd60e51b81526004016104ed906127c1565b7f00000000000000000000000000000000000000000000000000000000000000006001600160a01b03166107ad600080516020612b4d833981519152546001600160a01b031690565b6001600160a01b0316146107d35760405162461bcd60e51b81526004016104ed9061280d565b6107dc81611768565b604080516000808252602082019092526107f891839190611792565b50565b80516060908067ffffffffffffffff811115610819576108196121c0565b60405190808252806020026020018201604052801561089257816020015b61087f6040518060e00160405280606081526020016060815260200160608152602001600063ffffffff16815260200160608152602001606081526020016000151581525090565b8152602001906001900390816108375790505b50915060005b81811015610bfb5760008482815181106108b4576108b4612795565b602002602001015190506101305481106109105760405162461bcd60e51b815260206004820181905260248201527f426174746c653a20626174746c654964206973206f7574206f662072616e676560448201526064016104ed565b6040518060e001604052806101316000848152602001908152602001600020805461093a90612859565b80601f016020809104026020016040519081016040528092919081815260200182805461096690612859565b80156109b35780601f10610988576101008083540402835291602001916109b3565b820191906000526020600020905b81548152906001019060200180831161099657829003601f168201915b50505050508152602001610132600084815260200190815260200160002080546109dc90612859565b80601f0160208091040260200160405190810160405280929190818152602001828054610a0890612859565b8015610a555780601f10610a2a57610100808354040283529160200191610a55565b820191906000526020600020905b815481529060010190602001808311610a3857829003601f168201915b505050505081526020016101336000848152602001908152602001600020805480602002602001604051908101604052809291908181526020018280548015610ac757602002820191906000526020600020905b81546001600160a01b03168152600190910190602001808311610aa9575b50505091835250506000838152610134602090815260408083205463ffffffff16828501528583526101358252918290208054835181840281018401855281815293909401939091830182828015610b4857602002820191906000526020600020905b81546001600160a01b03168152600190910190602001808311610b2a575b505050505081526020016101366000848152602001908152602001600020805480602002602001604051908101604052809291908181526020018280548015610bb057602002820191906000526020600020905b815481526020019060010190808311610b9c575b50505091835250506000838152610137602090815260409091205460ff1615159101528451859084908110610be757610be7612795565b602090810291909101015250600101610898565b5050919050565b6001600160a01b037f0000000000000000000000000000000000000000000000000000000000000000163003610c4a5760405162461bcd60e51b81526004016104ed906127c1565b7f00000000000000000000000000000000000000000000000000000000000000006001600160a01b0316610c93600080516020612b4d833981519152546001600160a01b031690565b6001600160a01b031614610cb95760405162461bcd60e51b81526004016104ed9061280d565b610cc282611768565b61071882826001611792565b6000306001600160a01b037f00000000000000000000000000000000000000000000000000000000000000001614610d6e5760405162461bcd60e51b815260206004820152603860248201527f555550535570677261646561626c653a206d757374206e6f742062652063616c60448201527f6c6564207468726f7567682064656c656761746563616c6c000000000000000060648201526084016104ed565b50600080516020612b4d83398151915290565b6001600160a01b038216600090815261012f6020526040902054829060ff16610dbc5760405162461bcd60e51b81526004016104ed90612735565b610130548410610e0e5760405162461bcd60e51b815260206004820181905260248201527f426174746c653a20626174746c654964206973206f7574206f662072616e676560448201526064016104ed565b600084815261013560209081526040808320546101349092529091205463ffffffff168110610e905760405162461bcd60e51b815260206004820152602860248201527f426174746c653a206d6178207061727469636970616e7420636f756e74206973604482015267081c995858da195960c21b60648201526084016104ed565b6040516331a9108f60e11b815260048101849052849033906001600160a01b03831690636352211e90602401602060405180830381865afa158015610ed9573d6000803e3d6000fd5b505050506040513d601f19601f82011682018060405250810190610efd9190612893565b6001600160a01b031614610f535760405162461bcd60e51b815260206004820152601f60248201527f426174746c653a206d73672e73656e646572206973206e6f74206f776e65720060448201526064016104ed565b60005b828110156110375760008781526101356020526040902080546001600160a01b038816919083908110610f8b57610f8b612795565b6000918252602090912001546001600160a01b03160361102f57600087815261013660205260409020805486919083908110610fc957610fc9612795565b90600052602060002001540361102f5760405162461bcd60e51b815260206004820152602560248201527f426174746c653a207061727469636970616e7420697320616c7265616479206a6044820152641bda5b995960da1b60648201526084016104ed565b600101610f56565b5050506000848152610135602090815260408083208054600180820183559185528385200180546001600160a01b0319166001600160a01b0398909816979097179096559582526101368152948120805494850181558152939093209091015550565b600054610100900460ff16158080156110ba5750600054600160ff909116105b806110d45750303b1580156110d4575060005460ff166001145b6111375760405162461bcd60e51b815260206004820152602e60248201527f496e697469616c697a61626c653a20636f6e747261637420697320616c72656160448201526d191e481a5b9a5d1a585b1a5e995960921b60648201526084016104ed565b6000805460ff19166001179055801561115a576000805461ff0019166101001790555b6111626118fd565b61116a6118fd565b611175600033611724565b61119f7f189ab7a9244df0848122154315af71fe140f3db0fe014031783b0946b8c9d2e333611724565b6111c97f6a64baf327d646d1bca72653e2a075d15fd6ac6d8cbd7f6ee03fc55875e0fa8833611724565b80156107f8576000805461ff0019169055604051600181527f7f26b83ff96e1f2b6a682f133852f6798a09c465da95921460cefb38474024989060200160405180910390a150565b6000828152609760205260408120611229908361196a565b9392505050565b81518290600081900361127d5760405162461bcd60e51b8152602060048201526015602482015274426174746c653a206e66747320697320656d70747960581b60448201526064016104ed565b60005b818110156112ea5761012f600084838151811061129f5761129f612795565b6020908102919091018101516001600160a01b031682528101919091526040016000205460ff166112e25760405162461bcd60e51b81526004016104ed90612735565b600101611280565b506101305460009081526101316020526040902061130887826128fe565b506101305460009081526101326020526040902061132686826128fe565b5061013054600090815261013360209081526040909120855161134b92870190612054565b506101308054600090815261013460205260408120805463ffffffff191663ffffffff871617905581549190611380836129be565b9190505550505050505050565b60009182526065602090815260408084206001600160a01b0393909316845291905290205460ff1690565b60008181526101356020908152604080832080548251818502810185019093528083526060949383018282801561141857602002820191906000526020600020905b81546001600160a01b031681526001909101906020018083116113fa575b505050505090506000610136600085815260200190815260200160002080548060200260200160405190810160405280929190818152602001828054801561147f57602002820191906000526020600020905b81548152602001906001019080831161146b575b50508551939450839250505067ffffffffffffffff8111156114a3576114a36121c0565b6040519080825280602002602001820160405280156114d657816020015b60608152602001906001900390816114c15790505b50935060005b818110156115b45760008482815181106114f8576114f8612795565b60200260200101519050806001600160a01b031663c87b56dd85848151811061152357611523612795565b60200260200101516040518263ffffffff1660e01b815260040161154991815260200190565b600060405180830381865afa158015611566573d6000803e3d6000fd5b505050506040513d6000823e601f3d908101601f1916820160405261158e91908101906129d7565b8683815181106115a0576115a0612795565b6020908102919091010152506001016114dc565b50505050919050565b60006115c88161171a565b6001600160a01b038216600090815261012f602052604090205460ff16156116325760405162461bcd60e51b815260206004820181905260248201527f426174746c653a206e667420697320616c726561647920617661696c61626c6560448201526064016104ed565b506001600160a01b0316600081815261012f60209081526040808320805460ff1916600190811790915561012d805461012e909452918420839055820181559091527f193a3ae4da5049eb74cee39e4cf5827f7ce7b1d1d1775ef1c6311eb60558e6d50180546001600160a01b0319169091179055565b60008181526097602052604081206104a390611976565b6000828152606560205260409020600101546116db8161171a565b6106368383611746565b60006001600160e01b03198216637965db0b60e01b14806104a357506301ffc9a760e01b6001600160e01b03198316146104a3565b6107f88133611980565b61172e82826119d9565b60008281526097602052604090206106369082611a5f565b6117508282611a74565b60008281526097602052604090206106369082611adb565b7f189ab7a9244df0848122154315af71fe140f3db0fe014031783b0946b8c9d2e36107188161171a565b7f4910fdfa16fed3260ed0e7147f7cc6da11a60208b5b9406d12a635614ffd91435460ff16156117c55761063683611af0565b826001600160a01b03166352d1902d6040518163ffffffff1660e01b8152600401602060405180830381865afa92505050801561181f575060408051601f3d908101601f1916820190925261181c91810190612a4e565b60015b6118825760405162461bcd60e51b815260206004820152602e60248201527f45524331393637557067726164653a206e657720696d706c656d656e7461746960448201526d6f6e206973206e6f74205555505360901b60648201526084016104ed565b600080516020612b4d83398151915281146118f15760405162461bcd60e51b815260206004820152602960248201527f45524331393637557067726164653a20756e737570706f727465642070726f786044820152681a58589b195555525160ba1b60648201526084016104ed565b50610636838383611b8c565b600054610100900460ff166119685760405162461bcd60e51b815260206004820152602b60248201527f496e697469616c697a61626c653a20636f6e7472616374206973206e6f74206960448201526a6e697469616c697a696e6760a81b60648201526084016104ed565b565b60006112298383611bb7565b60006104a3825490565b61198a828261138d565b6107185761199781611be1565b6119a2836020611bf3565b6040516020016119b3929190612a67565b60408051601f198184030181529082905262461bcd60e51b82526104ed91600401612adc565b6119e3828261138d565b6107185760008281526065602090815260408083206001600160a01b03851684529091529020805460ff19166001179055611a1b3390565b6001600160a01b0316816001600160a01b0316837f2f8788117e7eff1d82e926ec794901d17c78024a50270940304540a733656f0d60405160405180910390a45050565b6000611229836001600160a01b038416611d8f565b611a7e828261138d565b156107185760008281526065602090815260408083206001600160a01b0385168085529252808320805460ff1916905551339285917ff6391f5c32d9c69d2a47ea670b442974b53935d1edc7fd64eb21e047a839171b9190a45050565b6000611229836001600160a01b038416611dde565b6001600160a01b0381163b611b5d5760405162461bcd60e51b815260206004820152602d60248201527f455243313936373a206e657720696d706c656d656e746174696f6e206973206e60448201526c1bdd08184818dbdb9d1c9858dd609a1b60648201526084016104ed565b600080516020612b4d83398151915280546001600160a01b0319166001600160a01b0392909216919091179055565b611b9583611ed1565b600082511180611ba25750805b1561063657611bb18383611f11565b50505050565b6000826000018281548110611bce57611bce612795565b9060005260206000200154905092915050565b60606104a36001600160a01b03831660145b60606000611c02836002612aef565b611c0d906002612b06565b67ffffffffffffffff811115611c2557611c256121c0565b6040519080825280601f01601f191660200182016040528015611c4f576020820181803683370190505b509050600360fc1b81600081518110611c6a57611c6a612795565b60200101906001600160f81b031916908160001a905350600f60fb1b81600181518110611c9957611c99612795565b60200101906001600160f81b031916908160001a9053506000611cbd846002612aef565b611cc8906001612b06565b90505b6001811115611d40576f181899199a1a9b1b9c1cb0b131b232b360811b85600f1660108110611cfc57611cfc612795565b1a60f81b828281518110611d1257611d12612795565b60200101906001600160f81b031916908160001a90535060049490941c93611d3981612b19565b9050611ccb565b5083156112295760405162461bcd60e51b815260206004820181905260248201527f537472696e67733a20686578206c656e67746820696e73756666696369656e7460448201526064016104ed565b6000818152600183016020526040812054611dd6575081546001818101845560008481526020808220909301849055845484825282860190935260409020919091556104a3565b5060006104a3565b60008181526001830160205260408120548015611ec7576000611e02600183612782565b8554909150600090611e1690600190612782565b9050818114611e7b576000866000018281548110611e3657611e36612795565b9060005260206000200154905080876000018481548110611e5957611e59612795565b6000918252602080832090910192909255918252600188019052604090208390555b8554869080611e8c57611e8c6127ab565b6001900381819060005260206000200160009055905585600101600086815260200190815260200160002060009055600193505050506104a3565b60009150506104a3565b611eda81611af0565b6040516001600160a01b038216907fbc7cd75a20ee27fd9adebab32041f755214dbc6bffa90cc0225b39da2e5c2d3b90600090a250565b60606112298383604051806060016040528060278152602001612b6d602791396060600080856001600160a01b031685604051611f4e9190612b30565b600060405180830381855af49150503d8060008114611f89576040519150601f19603f3d011682016040523d82523d6000602084013e611f8e565b606091505b5091509150611f9f86838387611fa9565b9695505050505050565b60608315612018578251600003612011576001600160a01b0385163b6120115760405162461bcd60e51b815260206004820152601d60248201527f416464726573733a2063616c6c20746f206e6f6e2d636f6e747261637400000060448201526064016104ed565b5081612022565b612022838361202a565b949350505050565b81511561203a5781518083602001fd5b8060405162461bcd60e51b81526004016104ed9190612adc565b8280548282559060005260206000209081019282156120a9579160200282015b828111156120a957825182546001600160a01b0319166001600160a01b03909116178255602090920191600190910190612074565b506120b59291506120b9565b5090565b5b808211156120b557600081556001016120ba565b6000602082840312156120e057600080fd5b81356001600160e01b03198116811461122957600080fd5b6001600160a01b03811681146107f857600080fd5b60006020828403121561211f57600080fd5b8135611229816120f8565b60006020828403121561213c57600080fd5b5035919050565b6000806040838503121561215657600080fd5b823591506020830135612168816120f8565b809150509250929050565b6020808252825182820181905260009190848201906040850190845b818110156121b45783516001600160a01b03168352928401929184019160010161218f565b50909695505050505050565b634e487b7160e01b600052604160045260246000fd5b604051601f8201601f1916810167ffffffffffffffff811182821017156121ff576121ff6121c0565b604052919050565b600067ffffffffffffffff821115612221576122216121c0565b5060051b60200190565b6000602080838503121561223e57600080fd5b823567ffffffffffffffff81111561225557600080fd5b8301601f8101851361226657600080fd5b803561227961227482612207565b6121d6565b81815260059190911b8201830190838101908783111561229857600080fd5b928401925b828410156122b65783358252928401929084019061229d565b979650505050505050565b60005b838110156122dc5781810151838201526020016122c4565b50506000910152565b600081518084526122fd8160208601602086016122c1565b601f01601f19169290920160200192915050565b600081518084526020808501945080840160005b8381101561234a5781516001600160a01b031687529582019590820190600101612325565b509495945050505050565b600081518084526020808501945080840160005b8381101561234a57815187529582019590820190600101612369565b60006020808301818452808551808352604092508286019150828160051b87010184880160005b8381101561247557603f19898403018552815160e081518186526123d2828701826122e5565b915050888201518582038a8701526123ea82826122e5565b91505087820151858203898701526124028282612311565b915050606063ffffffff818401511681870152506080808301518683038288015261242d8382612311565b9250505060a080830151868303828801526124488382612355565b9250505060c08083015192506124618187018415159052565b5095880195935050908601906001016123ac565b509098975050505050505050565b600067ffffffffffffffff82111561249d5761249d6121c0565b50601f01601f191660200190565b60006124b961227484612483565b90508281528383830111156124cd57600080fd5b828260208301376000602084830101529392505050565b600080604083850312156124f757600080fd5b8235612502816120f8565b9150602083013567ffffffffffffffff81111561251e57600080fd5b8301601f8101851361252f57600080fd5b61253e858235602084016124ab565b9150509250929050565b60008060006060848603121561255d57600080fd5b83359250602084013561256f816120f8565b929592945050506040919091013590565b6000806040838503121561259357600080fd5b50508035926020909101359150565b600082601f8301126125b357600080fd5b611229838335602085016124ab565b803563ffffffff811681146125d657600080fd5b919050565b600080600080608085870312156125f157600080fd5b843567ffffffffffffffff8082111561260957600080fd5b612615888389016125a2565b955060209150818701358181111561262c57600080fd5b61263889828a016125a2565b95505060408701358181111561264d57600080fd5b87019050601f8101881361266057600080fd5b803561266e61227482612207565b81815260059190911b8201830190838101908a83111561268d57600080fd5b928401925b828410156126b45783356126a5816120f8565b82529284019290840190612692565b80965050505050506126c8606086016125c2565b905092959194509250565b6000602080830181845280855180835260408601915060408160051b870101925083870160005b8281101561272857603f198886030184526127168583516122e5565b945092850192908501906001016126fa565b5092979650505050505050565b6020808252601c908201527f426174746c653a206e6674206973206e6f7420617661696c61626c6500000000604082015260600190565b634e487b7160e01b600052601160045260246000fd5b818103818111156104a3576104a361276c565b634e487b7160e01b600052603260045260246000fd5b634e487b7160e01b600052603160045260246000fd5b6020808252602c908201527f46756e6374696f6e206d7573742062652063616c6c6564207468726f7567682060408201526b19195b1959d85d1958d85b1b60a21b606082015260800190565b6020808252602c908201527f46756e6374696f6e206d7573742062652063616c6c6564207468726f7567682060408201526b6163746976652070726f787960a01b606082015260800190565b600181811c9082168061286d57607f821691505b60208210810361288d57634e487b7160e01b600052602260045260246000fd5b50919050565b6000602082840312156128a557600080fd5b8151611229816120f8565b601f82111561063657600081815260208120601f850160051c810160208610156128d75750805b601f850160051c820191505b818110156128f6578281556001016128e3565b505050505050565b815167ffffffffffffffff811115612918576129186121c0565b61292c816129268454612859565b846128b0565b602080601f83116001811461296157600084156129495750858301515b600019600386901b1c1916600185901b1785556128f6565b600085815260208120601f198616915b8281101561299057888601518255948401946001909101908401612971565b50858210156129ae5787850151600019600388901b60f8161c191681555b5050505050600190811b01905550565b6000600182016129d0576129d061276c565b5060010190565b6000602082840312156129e957600080fd5b815167ffffffffffffffff811115612a0057600080fd5b8201601f81018413612a1157600080fd5b8051612a1f61227482612483565b818152856020838501011115612a3457600080fd5b612a458260208301602086016122c1565b95945050505050565b600060208284031215612a6057600080fd5b5051919050565b7f416363657373436f6e74726f6c3a206163636f756e7420000000000000000000815260008351612a9f8160178501602088016122c1565b7001034b99036b4b9b9b4b733903937b6329607d1b6017918401918201528351612ad08160288401602088016122c1565b01602801949350505050565b60208152600061122960208301846122e5565b80820281158282048414176104a3576104a361276c565b808201808211156104a3576104a361276c565b600081612b2857612b2861276c565b506000190190565b60008251612b428184602087016122c1565b919091019291505056fe360894a13ba1a3210667c828492db98dca3e2076cc3735a920a3ca505d382bbc416464726573733a206c6f772d6c6576656c2064656c65676174652063616c6c206661696c6564a26469706673582212204522d9fc59ee3337405a11179de1bf31e17f8ab4cff625468ce7f8cb3308770864736f6c63430008120033",
  "linkReferences": {},
  "deployedLinkReferences": {}
}