{
  "_format": "hh-sol-artifact-1",
  "contractName": "Battle",
  "sourceName": "contracts/battle/Battle.sol",
  "abi": [
    {
      "inputs": [],
      "stateMutability": "nonpayable",
      "type": "constructor"
    },
    {
      "anonymous": false,
      "inputs": [
        {
          "indexed": false,
          "internalType": "address",
          "name": "previousAdmin",
          "type": "address"
        },
        {
          "indexed": false,
          "internalType": "address",
          "name": "newAdmin",
          "type": "address"
        }
      ],
      "name": "AdminChanged",
      "type": "event"
    },
    {
      "anonymous": false,
      "inputs": [
        {
          "indexed": true,
          "internalType": "address",
          "name": "beacon",
          "type": "address"
        }
      ],
      "name": "BeaconUpgraded",
      "type": "event"
    },
    {
      "anonymous": false,
      "inputs": [
        {
          "indexed": false,
          "internalType": "uint8",
          "name": "version",
          "type": "uint8"
        }
      ],
      "name": "Initialized",
      "type": "event"
    },
    {
      "anonymous": false,
      "inputs": [
        {
          "indexed": true,
          "internalType": "bytes32",
          "name": "role",
          "type": "bytes32"
        },
        {
          "indexed": true,
          "internalType": "bytes32",
          "name": "previousAdminRole",
          "type": "bytes32"
        },
        {
          "indexed": true,
          "internalType": "bytes32",
          "name": "newAdminRole",
          "type": "bytes32"
        }
      ],
      "name": "RoleAdminChanged",
      "type": "event"
    },
    {
      "anonymous": false,
      "inputs": [
        {
          "indexed": true,
          "internalType": "bytes32",
          "name": "role",
          "type": "bytes32"
        },
        {
          "indexed": true,
          "internalType": "address",
          "name": "account",
          "type": "address"
        },
        {
          "indexed": true,
          "internalType": "address",
          "name": "sender",
          "type": "address"
        }
      ],
      "name": "RoleGranted",
      "type": "event"
    },
    {
      "anonymous": false,
      "inputs": [
        {
          "indexed": true,
          "internalType": "bytes32",
          "name": "role",
          "type": "bytes32"
        },
        {
          "indexed": true,
          "internalType": "address",
          "name": "account",
          "type": "address"
        },
        {
          "indexed": true,
          "internalType": "address",
          "name": "sender",
          "type": "address"
        }
      ],
      "name": "RoleRevoked",
      "type": "event"
    },
    {
      "anonymous": false,
      "inputs": [
        {
          "indexed": true,
          "internalType": "address",
          "name": "implementation",
          "type": "address"
        }
      ],
      "name": "Upgraded",
      "type": "event"
    },
    {
      "inputs": [],
      "name": "DEFAULT_ADMIN_ROLE",
      "outputs": [
        {
          "internalType": "bytes32",
          "name": "",
          "type": "bytes32"
        }
      ],
      "stateMutability": "view",
      "type": "function"
    },
    {
      "inputs": [],
      "name": "GAME_ROLE",
      "outputs": [
        {
          "internalType": "bytes32",
          "name": "",
          "type": "bytes32"
        }
      ],
      "stateMutability": "view",
      "type": "function"
    },
    {
      "inputs": [],
      "name": "UPGRADER_ROLE",
      "outputs": [
        {
          "internalType": "bytes32",
          "name": "",
          "type": "bytes32"
        }
      ],
      "stateMutability": "view",
      "type": "function"
    },
    {
      "inputs": [
        {
          "internalType": "address",
          "name": "nft",
          "type": "address"
        }
      ],
      "name": "addAvailableNFT",
      "outputs": [],
      "stateMutability": "nonpayable",
      "type": "function"
    },
    {
      "inputs": [
        {
          "internalType": "string",
          "name": "title",
          "type": "string"
        },
        {
          "internalType": "string",
          "name": "description",
          "type": "string"
        },
        {
          "internalType": "address[]",
          "name": "availableNFTs",
          "type": "address[]"
        },
        {
          "internalType": "uint32",
          "name": "maxParticipantCount",
          "type": "uint32"
        }
      ],
      "name": "create",
      "outputs": [],
      "stateMutability": "nonpayable",
      "type": "function"
    },
    {
      "inputs": [],
      "name": "getAvailableNFTs",
      "outputs": [
        {
          "internalType": "address[]",
          "name": "returnValue",
          "type": "address[]"
        }
      ],
      "stateMutability": "view",
      "type": "function"
    },
    {
      "inputs": [
        {
          "internalType": "uint256[]",
          "name": "battleIds",
          "type": "uint256[]"
        }
      ],
      "name": "getBattles",
      "outputs": [
        {
          "components": [
            {
              "internalType": "string",
              "name": "title",
              "type": "string"
            },
            {
              "internalType": "string",
              "name": "description",
              "type": "string"
            },
            {
              "internalType": "address[]",
              "name": "availableNFTs",
              "type": "address[]"
            },
            {
              "internalType": "uint32",
              "name": "maxParticipantCount",
              "type": "uint32"
            },
            {
              "internalType": "address[]",
              "name": "participantNFTs",
              "type": "address[]"
            },
            {
              "internalType": "uint256[]",
              "name": "participantTokenIds",
              "type": "uint256[]"
            },
            {
              "internalType": "bool",
              "name": "closed",
              "type": "bool"
            }
          ],
          "internalType": "struct IBattle.Battle[]",
          "name": "returnValue",
          "type": "tuple[]"
        }
      ],
      "stateMutability": "view",
      "type": "function"
    },
    {
      "inputs": [
        {
          "internalType": "bytes32",
          "name": "role",
          "type": "bytes32"
        }
      ],
      "name": "getRoleAdmin",
      "outputs": [
        {
          "internalType": "bytes32",
          "name": "",
          "type": "bytes32"
        }
      ],
      "stateMutability": "view",
      "type": "function"
    },
    {
      "inputs": [
        {
          "internalType": "bytes32",
          "name": "role",
          "type": "bytes32"
        },
        {
          "internalType": "uint256",
          "name": "index",
          "type": "uint256"
        }
      ],
      "name": "getRoleMember",
      "outputs": [
        {
          "internalType": "address",
          "name": "",
          "type": "address"
        }
      ],
      "stateMutability": "view",
      "type": "function"
    },
    {
      "inputs": [
        {
          "internalType": "bytes32",
          "name": "role",
          "type": "bytes32"
        }
      ],
      "name": "getRoleMemberCount",
      "outputs": [
        {
          "internalType": "uint256",
          "name": "",
          "type": "uint256"
        }
      ],
      "stateMutability": "view",
      "type": "function"
    },
    {
      "inputs": [],
      "name": "getTotalBattle",
      "outputs": [
        {
          "internalType": "uint256",
          "name": "returnValue",
          "type": "uint256"
        }
      ],
      "stateMutability": "view",
      "type": "function"
    },
    {
      "inputs": [
        {
          "internalType": "bytes32",
          "name": "role",
          "type": "bytes32"
        },
        {
          "internalType": "address",
          "name": "account",
          "type": "address"
        }
      ],
      "name": "grantRole",
      "outputs": [],
      "stateMutability": "nonpayable",
      "type": "function"
    },
    {
      "inputs": [
        {
          "internalType": "bytes32",
          "name": "role",
          "type": "bytes32"
        },
        {
          "internalType": "address",
          "name": "account",
          "type": "address"
        }
      ],
      "name": "hasRole",
      "outputs": [
        {
          "internalType": "bool",
          "name": "",
          "type": "bool"
        }
      ],
      "stateMutability": "view",
      "type": "function"
    },
    {
      "inputs": [],
      "name": "initialize",
      "outputs": [],
      "stateMutability": "nonpayable",
      "type": "function"
    },
    {
      "inputs": [
        {
          "internalType": "uint256",
          "name": "battleId",
          "type": "uint256"
        },
        {
          "internalType": "address",
          "name": "participantNFT",
          "type": "address"
        },
        {
          "internalType": "uint256",
          "name": "participantTokenId",
          "type": "uint256"
        }
      ],
      "name": "join",
      "outputs": [],
      "stateMutability": "nonpayable",
      "type": "function"
    },
    {
      "inputs": [],
      "name": "proxiableUUID",
      "outputs": [
        {
          "internalType": "bytes32",
          "name": "",
          "type": "bytes32"
        }
      ],
      "stateMutability": "view",
      "type": "function"
    },
    {
      "inputs": [
        {
          "internalType": "address",
          "name": "nft",
          "type": "address"
        }
      ],
      "name": "removeAvailableNFT",
      "outputs": [],
      "stateMutability": "nonpayable",
      "type": "function"
    },
    {
      "inputs": [
        {
          "internalType": "bytes32",
          "name": "role",
          "type": "bytes32"
        },
        {
          "internalType": "address",
          "name": "account",
          "type": "address"
        }
      ],
      "name": "renounceRole",
      "outputs": [],
      "stateMutability": "nonpayable",
      "type": "function"
    },
    {
      "inputs": [
        {
          "internalType": "bytes32",
          "name": "role",
          "type": "bytes32"
        },
        {
          "internalType": "address",
          "name": "account",
          "type": "address"
        }
      ],
      "name": "revokeRole",
      "outputs": [],
      "stateMutability": "nonpayable",
      "type": "function"
    },
    {
      "inputs": [
        {
          "internalType": "bytes4",
          "name": "interfaceId",
          "type": "bytes4"
        }
      ],
      "name": "supportsInterface",
      "outputs": [
        {
          "internalType": "bool",
          "name": "",
          "type": "bool"
        }
      ],
      "stateMutability": "view",
      "type": "function"
    },
    {
      "inputs": [
        {
          "internalType": "address",
          "name": "newImplementation",
          "type": "address"
        }
      ],
      "name": "upgradeTo",
      "outputs": [],
      "stateMutability": "nonpayable",
      "type": "function"
    },
    {
      "inputs": [
        {
          "internalType": "address",
          "name": "newImplementation",
          "type": "address"
        },
        {
          "internalType": "bytes",
          "name": "data",
          "type": "bytes"
        }
      ],
      "name": "upgradeToAndCall",
      "outputs": [],
      "stateMutability": "payable",
      "type": "function"
    }
  ],
  "bytecode": "0x60a0604052306080523480156200001557600080fd5b506200002062000026565b620000e7565b600054610100900460ff1615620000935760405162461bcd60e51b815260206004820152602760248201527f496e697469616c697a61626c653a20636f6e747261637420697320696e697469604482015266616c697a696e6760c81b606482015260840160405180910390fd5b60005460ff90811614620000e5576000805460ff191660ff9081179091556040519081527f7f26b83ff96e1f2b6a682f133852f6798a09c465da95921460cefb38474024989060200160405180910390a15b565b6080516127406200011f600039600081816106ee0152818161072e01528181610bd401528181610c140152610ca301526127406000f3fe6080604052600436106101355760003560e01c80638129fc1c116100ab578063a217fddf1161006f578063a217fddf14610369578063ab4007061461037e578063bb78b0b5146103b2578063ca15c873146103d2578063d547741f146103f2578063f72c0d8b1461041257600080fd5b80638129fc1c146102c6578063868dd48d146102db5780639010d07c146102f1578063904c9e821461032957806391d148541461034957600080fd5b806336568abe116100fd57806336568abe146102115780633659cfe6146102315780634cfbc81c146102515780634f1ef2861461027e57806352d1902d146102915780637613c1d2146102a657600080fd5b806301ffc9a71461013a578063119c845a1461016f578063248a9ca3146101915780632f2ff15d146101cf57806332702c95146101ef575b600080fd5b34801561014657600080fd5b5061015a610155366004611d27565b610446565b60405190151581526020015b60405180910390f35b34801561017b57600080fd5b5061018f61018a366004611d66565b610471565b005b34801561019d57600080fd5b506101c16101ac366004611d83565b60009081526065602052604090206001015490565b604051908152602001610166565b3480156101db57600080fd5b5061018f6101ea366004611d9c565b6105d9565b3480156101fb57600080fd5b50610204610603565b6040516101669190611dcc565b34801561021d57600080fd5b5061018f61022c366004611d9c565b610666565b34801561023d57600080fd5b5061018f61024c366004611d66565b6106e4565b34801561025d57600080fd5b5061027161026c366004611e84565b6107c3565b6040516101669190611fde565b61018f61028c366004612134565b610bca565b34801561029d57600080fd5b506101c1610c96565b3480156102b257600080fd5b5061018f6102c1366004612198565b610d49565b3480156102d257600080fd5b5061018f610ef8565b3480156102e757600080fd5b50610130546101c1565b3480156102fd57600080fd5b5061031161030c3660046121d0565b61106f565b6040516001600160a01b039091168152602001610166565b34801561033557600080fd5b5061018f61034436600461222b565b61108e565b34801561035557600080fd5b5061015a610364366004611d9c565b6111eb565b34801561037557600080fd5b506101c1600081565b34801561038a57600080fd5b506101c17f6a64baf327d646d1bca72653e2a075d15fd6ac6d8cbd7f6ee03fc55875e0fa8881565b3480156103be57600080fd5b5061018f6103cd366004611d66565b611216565b3480156103de57600080fd5b506101c16103ed366004611d83565b611302565b3480156103fe57600080fd5b5061018f61040d366004611d9c565b611319565b34801561041e57600080fd5b506101c17f189ab7a9244df0848122154315af71fe140f3db0fe014031783b0946b8c9d2e381565b60006001600160e01b03198216635a05180f60e01b148061046b575061046b8261133e565b92915050565b600061047c81611373565b6001600160a01b038216600090815261012f602052604090205460ff166104be5760405162461bcd60e51b81526004016104b590612323565b60405180910390fd5b6001600160a01b038216600090815261012f60209081526040808320805460ff1916905561012e90915281205461012d80549192916104ff90600190612370565b8154811061050f5761050f612383565b6000918252602090912001546001600160a01b03908116915084168114610580578061012d838154811061054557610545612383565b600091825260208083209190910180546001600160a01b0319166001600160a01b03948516179055918316815261012e909152604090208290555b61012d80548061059257610592612399565b60008281526020808220830160001990810180546001600160a01b03191690559092019092556001600160a01b0395909516815261012e9094525050604082209190915550565b6000828152606560205260409020600101546105f481611373565b6105fe838361137d565b505050565b606061012d80548060200260200160405190810160405280929190818152602001828054801561065c57602002820191906000526020600020905b81546001600160a01b0316815260019091019060200180831161063e575b5050505050905090565b6001600160a01b03811633146106d65760405162461bcd60e51b815260206004820152602f60248201527f416363657373436f6e74726f6c3a2063616e206f6e6c792072656e6f756e636560448201526e103937b632b9903337b91039b2b63360891b60648201526084016104b5565b6106e0828261139f565b5050565b6001600160a01b037f000000000000000000000000000000000000000000000000000000000000000016300361072c5760405162461bcd60e51b81526004016104b5906123af565b7f00000000000000000000000000000000000000000000000000000000000000006001600160a01b03166107756000805160206126c4833981519152546001600160a01b031690565b6001600160a01b03161461079b5760405162461bcd60e51b81526004016104b5906123fb565b6107a4816113c1565b604080516000808252602082019092526107c0918391906113eb565b50565b80516060908067ffffffffffffffff8111156107e1576107e1611e19565b60405190808252806020026020018201604052801561085a57816020015b6108476040518060e00160405280606081526020016060815260200160608152602001600063ffffffff16815260200160608152602001606081526020016000151581525090565b8152602001906001900390816107ff5790505b50915060005b81811015610bc357600084828151811061087c5761087c612383565b602002602001015190506101305481106108d85760405162461bcd60e51b815260206004820181905260248201527f426174746c653a20626174746c654964206973206f7574206f662072616e676560448201526064016104b5565b6040518060e001604052806101316000848152602001908152602001600020805461090290612447565b80601f016020809104026020016040519081016040528092919081815260200182805461092e90612447565b801561097b5780601f106109505761010080835404028352916020019161097b565b820191906000526020600020905b81548152906001019060200180831161095e57829003601f168201915b50505050508152602001610132600084815260200190815260200160002080546109a490612447565b80601f01602080910402602001604051908101604052809291908181526020018280546109d090612447565b8015610a1d5780601f106109f257610100808354040283529160200191610a1d565b820191906000526020600020905b815481529060010190602001808311610a0057829003601f168201915b505050505081526020016101336000848152602001908152602001600020805480602002602001604051908101604052809291908181526020018280548015610a8f57602002820191906000526020600020905b81546001600160a01b03168152600190910190602001808311610a71575b50505091835250506000838152610134602090815260408083205463ffffffff16828501528583526101358252918290208054835181840281018401855281815293909401939091830182828015610b1057602002820191906000526020600020905b81546001600160a01b03168152600190910190602001808311610af2575b505050505081526020016101366000848152602001908152602001600020805480602002602001604051908101604052809291908181526020018280548015610b7857602002820191906000526020600020905b815481526020019060010190808311610b64575b50505091835250506000838152610137602090815260409091205460ff1615159101528451859084908110610baf57610baf612383565b602090810291909101015250600101610860565b5050919050565b6001600160a01b037f0000000000000000000000000000000000000000000000000000000000000000163003610c125760405162461bcd60e51b81526004016104b5906123af565b7f00000000000000000000000000000000000000000000000000000000000000006001600160a01b0316610c5b6000805160206126c4833981519152546001600160a01b031690565b6001600160a01b031614610c815760405162461bcd60e51b81526004016104b5906123fb565b610c8a826113c1565b6106e0828260016113eb565b6000306001600160a01b037f00000000000000000000000000000000000000000000000000000000000000001614610d365760405162461bcd60e51b815260206004820152603860248201527f555550535570677261646561626c653a206d757374206e6f742062652063616c60448201527f6c6564207468726f7567682064656c656761746563616c6c000000000000000060648201526084016104b5565b506000805160206126c483398151915290565b6001600160a01b038216600090815261012f6020526040902054829060ff16610d845760405162461bcd60e51b81526004016104b590612323565b610130548410610dd65760405162461bcd60e51b815260206004820181905260248201527f426174746c653a20626174746c654964206973206f7574206f662072616e676560448201526064016104b5565b6040516331a9108f60e11b815260048101839052839033906001600160a01b03831690636352211e90602401602060405180830381865afa158015610e1f573d6000803e3d6000fd5b505050506040513d601f19601f82011682018060405250810190610e439190612481565b6001600160a01b031614610e995760405162461bcd60e51b815260206004820152601f60248201527f426174746c653a206d73672e73656e646572206973206e6f74206f776e65720060448201526064016104b5565b50506000838152610135602090815260408083208054600180820183559185528385200180546001600160a01b0319166001600160a01b0397909716969096179095559482526101368152938120805493840181558152929092200155565b600054610100900460ff1615808015610f185750600054600160ff909116105b80610f325750303b158015610f32575060005460ff166001145b610f955760405162461bcd60e51b815260206004820152602e60248201527f496e697469616c697a61626c653a20636f6e747261637420697320616c72656160448201526d191e481a5b9a5d1a585b1a5e995960921b60648201526084016104b5565b6000805460ff191660011790558015610fb8576000805461ff0019166101001790555b610fc0611556565b610fc8611556565b610fd360003361137d565b610ffd7f189ab7a9244df0848122154315af71fe140f3db0fe014031783b0946b8c9d2e33361137d565b6110277f6a64baf327d646d1bca72653e2a075d15fd6ac6d8cbd7f6ee03fc55875e0fa883361137d565b80156107c0576000805461ff0019169055604051600181527f7f26b83ff96e1f2b6a682f133852f6798a09c465da95921460cefb38474024989060200160405180910390a150565b600082815260976020526040812061108790836115c3565b9392505050565b8151829060008190036110db5760405162461bcd60e51b8152602060048201526015602482015274426174746c653a206e66747320697320656d70747960581b60448201526064016104b5565b60005b818110156111485761012f60008483815181106110fd576110fd612383565b6020908102919091018101516001600160a01b031682528101919091526040016000205460ff166111405760405162461bcd60e51b81526004016104b590612323565b6001016110de565b506101305460009081526101316020526040902061116687826124ec565b506101305460009081526101326020526040902061118486826124ec565b506101305460009081526101336020908152604090912085516111a992870190611cad565b506101308054600090815261013460205260408120805463ffffffff191663ffffffff8716179055815491906111de836125ac565b9190505550505050505050565b60009182526065602090815260408084206001600160a01b0393909316845291905290205460ff1690565b600061122181611373565b6001600160a01b038216600090815261012f602052604090205460ff161561128b5760405162461bcd60e51b815260206004820181905260248201527f426174746c653a206e667420697320616c726561647920617661696c61626c6560448201526064016104b5565b506001600160a01b0316600081815261012f60209081526040808320805460ff1916600190811790915561012d805461012e909452918420839055820181559091527f193a3ae4da5049eb74cee39e4cf5827f7ce7b1d1d1775ef1c6311eb60558e6d50180546001600160a01b0319169091179055565b600081815260976020526040812061046b906115cf565b60008281526065602052604090206001015461133481611373565b6105fe838361139f565b60006001600160e01b03198216637965db0b60e01b148061046b57506301ffc9a760e01b6001600160e01b031983161461046b565b6107c081336115d9565b6113878282611632565b60008281526097602052604090206105fe90826116b8565b6113a982826116cd565b60008281526097602052604090206105fe9082611734565b7f189ab7a9244df0848122154315af71fe140f3db0fe014031783b0946b8c9d2e36106e081611373565b7f4910fdfa16fed3260ed0e7147f7cc6da11a60208b5b9406d12a635614ffd91435460ff161561141e576105fe83611749565b826001600160a01b03166352d1902d6040518163ffffffff1660e01b8152600401602060405180830381865afa925050508015611478575060408051601f3d908101601f19168201909252611475918101906125c5565b60015b6114db5760405162461bcd60e51b815260206004820152602e60248201527f45524331393637557067726164653a206e657720696d706c656d656e7461746960448201526d6f6e206973206e6f74205555505360901b60648201526084016104b5565b6000805160206126c4833981519152811461154a5760405162461bcd60e51b815260206004820152602960248201527f45524331393637557067726164653a20756e737570706f727465642070726f786044820152681a58589b195555525160ba1b60648201526084016104b5565b506105fe8383836117e5565b600054610100900460ff166115c15760405162461bcd60e51b815260206004820152602b60248201527f496e697469616c697a61626c653a20636f6e7472616374206973206e6f74206960448201526a6e697469616c697a696e6760a81b60648201526084016104b5565b565b60006110878383611810565b600061046b825490565b6115e382826111eb565b6106e0576115f08161183a565b6115fb83602061184c565b60405160200161160c9291906125de565b60408051601f198184030181529082905262461bcd60e51b82526104b591600401612653565b61163c82826111eb565b6106e05760008281526065602090815260408083206001600160a01b03851684529091529020805460ff191660011790556116743390565b6001600160a01b0316816001600160a01b0316837f2f8788117e7eff1d82e926ec794901d17c78024a50270940304540a733656f0d60405160405180910390a45050565b6000611087836001600160a01b0384166119e8565b6116d782826111eb565b156106e05760008281526065602090815260408083206001600160a01b0385168085529252808320805460ff1916905551339285917ff6391f5c32d9c69d2a47ea670b442974b53935d1edc7fd64eb21e047a839171b9190a45050565b6000611087836001600160a01b038416611a37565b6001600160a01b0381163b6117b65760405162461bcd60e51b815260206004820152602d60248201527f455243313936373a206e657720696d706c656d656e746174696f6e206973206e60448201526c1bdd08184818dbdb9d1c9858dd609a1b60648201526084016104b5565b6000805160206126c483398151915280546001600160a01b0319166001600160a01b0392909216919091179055565b6117ee83611b2a565b6000825111806117fb5750805b156105fe5761180a8383611b6a565b50505050565b600082600001828154811061182757611827612383565b9060005260206000200154905092915050565b606061046b6001600160a01b03831660145b6060600061185b836002612666565b61186690600261267d565b67ffffffffffffffff81111561187e5761187e611e19565b6040519080825280601f01601f1916602001820160405280156118a8576020820181803683370190505b509050600360fc1b816000815181106118c3576118c3612383565b60200101906001600160f81b031916908160001a905350600f60fb1b816001815181106118f2576118f2612383565b60200101906001600160f81b031916908160001a9053506000611916846002612666565b61192190600161267d565b90505b6001811115611999576f181899199a1a9b1b9c1cb0b131b232b360811b85600f166010811061195557611955612383565b1a60f81b82828151811061196b5761196b612383565b60200101906001600160f81b031916908160001a90535060049490941c9361199281612690565b9050611924565b5083156110875760405162461bcd60e51b815260206004820181905260248201527f537472696e67733a20686578206c656e67746820696e73756666696369656e7460448201526064016104b5565b6000818152600183016020526040812054611a2f5750815460018181018455600084815260208082209093018490558454848252828601909352604090209190915561046b565b50600061046b565b60008181526001830160205260408120548015611b20576000611a5b600183612370565b8554909150600090611a6f90600190612370565b9050818114611ad4576000866000018281548110611a8f57611a8f612383565b9060005260206000200154905080876000018481548110611ab257611ab2612383565b6000918252602080832090910192909255918252600188019052604090208390555b8554869080611ae557611ae5612399565b60019003818190600052602060002001600090559055856001016000868152602001908152602001600020600090556001935050505061046b565b600091505061046b565b611b3381611749565b6040516001600160a01b038216907fbc7cd75a20ee27fd9adebab32041f755214dbc6bffa90cc0225b39da2e5c2d3b90600090a250565b606061108783836040518060600160405280602781526020016126e4602791396060600080856001600160a01b031685604051611ba791906126a7565b600060405180830381855af49150503d8060008114611be2576040519150601f19603f3d011682016040523d82523d6000602084013e611be7565b606091505b5091509150611bf886838387611c02565b9695505050505050565b60608315611c71578251600003611c6a576001600160a01b0385163b611c6a5760405162461bcd60e51b815260206004820152601d60248201527f416464726573733a2063616c6c20746f206e6f6e2d636f6e747261637400000060448201526064016104b5565b5081611c7b565b611c7b8383611c83565b949350505050565b815115611c935781518083602001fd5b8060405162461bcd60e51b81526004016104b59190612653565b828054828255906000526020600020908101928215611d02579160200282015b82811115611d0257825182546001600160a01b0319166001600160a01b03909116178255602090920191600190910190611ccd565b50611d0e929150611d12565b5090565b5b80821115611d0e5760008155600101611d13565b600060208284031215611d3957600080fd5b81356001600160e01b03198116811461108757600080fd5b6001600160a01b03811681146107c057600080fd5b600060208284031215611d7857600080fd5b813561108781611d51565b600060208284031215611d9557600080fd5b5035919050565b60008060408385031215611daf57600080fd5b823591506020830135611dc181611d51565b809150509250929050565b6020808252825182820181905260009190848201906040850190845b81811015611e0d5783516001600160a01b031683529284019291840191600101611de8565b50909695505050505050565b634e487b7160e01b600052604160045260246000fd5b604051601f8201601f1916810167ffffffffffffffff81118282101715611e5857611e58611e19565b604052919050565b600067ffffffffffffffff821115611e7a57611e7a611e19565b5060051b60200190565b60006020808385031215611e9757600080fd5b823567ffffffffffffffff811115611eae57600080fd5b8301601f81018513611ebf57600080fd5b8035611ed2611ecd82611e60565b611e2f565b81815260059190911b82018301908381019087831115611ef157600080fd5b928401925b82841015611f0f57833582529284019290840190611ef6565b979650505050505050565b60005b83811015611f35578181015183820152602001611f1d565b50506000910152565b60008151808452611f56816020860160208601611f1a565b601f01601f19169290920160200192915050565b600081518084526020808501945080840160005b83811015611fa35781516001600160a01b031687529582019590820190600101611f7e565b509495945050505050565b600081518084526020808501945080840160005b83811015611fa357815187529582019590820190600101611fc2565b60006020808301818452808551808352604092508286019150828160051b87010184880160005b838110156120ce57603f19898403018552815160e0815181865261202b82870182611f3e565b915050888201518582038a8701526120438282611f3e565b915050878201518582038987015261205b8282611f6a565b915050606063ffffffff81840151168187015250608080830151868303828801526120868382611f6a565b9250505060a080830151868303828801526120a18382611fae565b9250505060c08083015192506120ba8187018415159052565b509588019593505090860190600101612005565b509098975050505050505050565b600067ffffffffffffffff8311156120f6576120f6611e19565b612109601f8401601f1916602001611e2f565b905082815283838301111561211d57600080fd5b828260208301376000602084830101529392505050565b6000806040838503121561214757600080fd5b823561215281611d51565b9150602083013567ffffffffffffffff81111561216e57600080fd5b8301601f8101851361217f57600080fd5b61218e858235602084016120dc565b9150509250929050565b6000806000606084860312156121ad57600080fd5b8335925060208401356121bf81611d51565b929592945050506040919091013590565b600080604083850312156121e357600080fd5b50508035926020909101359150565b600082601f83011261220357600080fd5b611087838335602085016120dc565b803563ffffffff8116811461222657600080fd5b919050565b6000806000806080858703121561224157600080fd5b843567ffffffffffffffff8082111561225957600080fd5b612265888389016121f2565b955060209150818701358181111561227c57600080fd5b61228889828a016121f2565b95505060408701358181111561229d57600080fd5b87019050601f810188136122b057600080fd5b80356122be611ecd82611e60565b81815260059190911b8201830190838101908a8311156122dd57600080fd5b928401925b828410156123045783356122f581611d51565b825292840192908401906122e2565b809650505050505061231860608601612212565b905092959194509250565b6020808252601c908201527f426174746c653a206e6674206973206e6f7420617661696c61626c6500000000604082015260600190565b634e487b7160e01b600052601160045260246000fd5b8181038181111561046b5761046b61235a565b634e487b7160e01b600052603260045260246000fd5b634e487b7160e01b600052603160045260246000fd5b6020808252602c908201527f46756e6374696f6e206d7573742062652063616c6c6564207468726f7567682060408201526b19195b1959d85d1958d85b1b60a21b606082015260800190565b6020808252602c908201527f46756e6374696f6e206d7573742062652063616c6c6564207468726f7567682060408201526b6163746976652070726f787960a01b606082015260800190565b600181811c9082168061245b57607f821691505b60208210810361247b57634e487b7160e01b600052602260045260246000fd5b50919050565b60006020828403121561249357600080fd5b815161108781611d51565b601f8211156105fe57600081815260208120601f850160051c810160208610156124c55750805b601f850160051c820191505b818110156124e4578281556001016124d1565b505050505050565b815167ffffffffffffffff81111561250657612506611e19565b61251a816125148454612447565b8461249e565b602080601f83116001811461254f57600084156125375750858301515b600019600386901b1c1916600185901b1785556124e4565b600085815260208120601f198616915b8281101561257e5788860151825594840194600190910190840161255f565b508582101561259c5787850151600019600388901b60f8161c191681555b5050505050600190811b01905550565b6000600182016125be576125be61235a565b5060010190565b6000602082840312156125d757600080fd5b5051919050565b7f416363657373436f6e74726f6c3a206163636f756e7420000000000000000000815260008351612616816017850160208801611f1a565b7001034b99036b4b9b9b4b733903937b6329607d1b6017918401918201528351612647816028840160208801611f1a565b01602801949350505050565b6020815260006110876020830184611f3e565b808202811582820484141761046b5761046b61235a565b8082018082111561046b5761046b61235a565b60008161269f5761269f61235a565b506000190190565b600082516126b9818460208701611f1a565b919091019291505056fe360894a13ba1a3210667c828492db98dca3e2076cc3735a920a3ca505d382bbc416464726573733a206c6f772d6c6576656c2064656c65676174652063616c6c206661696c6564a2646970667358221220963f198dca5bb569a77b3a27190c7f3c4e9837b0a1fa69b71ea7c9d242c2894b64736f6c63430008120033",
  "linkReferences": {},
  "deployedLinkReferences": {}
}